:020000040800F2
:108000008820002065810008BB810008B38100083A
:10801000B7810008AD8100085D8200080000000003
:10802000000000000000000000000000E7810008E0
:10803000B181000800000000E5810008E981000826
:108040007F8100087F8100087F8100087F81000810
:108050007F8100087F8100087F8100087F81000800
:108060007F8100087F8100087F8100087F810008F0
:108070007F8100087F8100087F8100087F810008E0
:108080007F8100087F8100087F8100087F810008D0
:108090007F8100087F8100087F8100087F810008C0
:1080A0007F8100087F8100087F8100087F810008B0
:1080B0007F8100087F8100087F8100087F810008A0
:1080C0007F8100087F8100087F8100087F81000890
:1080D0007F8100087F8100087F8100087F81000880
:1080E0007F8100087F8100087F8100087F81000870
:1080F0007F8100087F8100087F8100080000000068
:108100007F810008000000007F8100087F81000857
:108110007F8100087F8100087F8100087F8100083F
:108120007F8100087F8100087F8100087F8100082F
:108130007F8100087F8100087F8100087F8100081F
:108140007F8100087F8100087F8100087F8100080F
:10815000DFF80CD000F018F800480047B1830008A1
:10816000882000200648804706480047FEE7FEE7D3
:10817000FEE7FEE7FEE7FEE7FEE7FEE7FEE7FEE7D7
:10818000F181000851810008064C074D06E0E068C7
:1081900040F0010394E8070098471034AC42F6D34E
:1081A000FFF7DAFF98850008B885000800BFFEE7F2
:1081B000704700BFFEE700BFFEE7704710B500281C
:1081C00007DA0A07140E054A00F00F031B1FD454E8
:1081D00003E00A07130E024A135410BD18ED00E025
:1081E00000E400E07047704710B500F053F810BD90
:1081F00010B51548006840F00100134908600846B2
:108200004068124908401049486008460068104913
:1082100008400D4908600846006820F48020086086
:10822000084640680B490840074948600020C8627A
:108230000846006808490840034908604FF47F0079
:10824000886000F07DF910BD001002400C00FFE0D6
:10825000FFFFF6FEFFFF00DFFFFFF6EA00BFFEE7CD
:1082600002E008C8121F08C1002AFAD170477047FF
:10827000002001E001C1121F002AFBD1704700005D
:108280000349086000BF024909680029FBD1704713
:10829000000000200448006820B103480068401E28
:1082A00001490860704700000000002010B5044636
:1082B0000B4931F8140000F0C1F80A4951F8243094
:1082C000094951F824000322102100F027F805483D
:1082D00050F82400044951F82410486110BD0000F2
:1082E000480000201800002008000020034951F831
:1082F0002010034A52F820205161704718000020D6
:1083000008000020034951F82010034A52F82020A9
:10831000116170471800002008000020F0B50446E5
:1083200016460025002201F00F0511F0100F00D0B5
:108330003543002018E0012787401F4212D02268F1
:108340004FEA800C0F2707FA0CF7BA43870005FAAB
:1083500007F73A43282901D1636102E0482900D197
:1083600023612260471CB8B20828E4D308201CE02F
:10837000012787401F4216D06268A0F108074FEA24
:10838000870C0F2707FA0CF7BA43A0F10807BF00C4
:1083900005FA07F73A43282901D1636102E0482929
:1083A00000D123616260471CB8B21028E0D3F0BD51
:1083B0004FF40041080300F037F80020FFF776FF84
:1083C0000120FFF773FF0220FFF770FF0320FFF784
:1083D0006DFF00F0B9F826E00020FFF793FFC820FA
:1083E000FFF74EFF0120FFF78DFFC820FFF748FF82
:1083F0000220FFF787FFC820FFF742FF0320FFF7A7
:1084000081FFC820FFF73CFF0020FFF76FFF01202E
:10841000FFF76CFF0220FFF769FF0320FFF766FFFD
:10842000C820FFF72DFFD7E7024A0A400243024B5C
:108430001A60704780FFFF1F08ED00E0064901EB5E
:108440009011096800F01F0301229A401143024A6B
:1084500002EB9012116070470010024000200021D2
:10846000324A126842F48032304B1A6000BF401C1E
:108470002E4A126802F4003119B9A0F57F42FF3A82
:10848000F5D12A4A126812F4003F01D100BFFEE77D
:10849000264A5268254B5A601A4652685A601A4654
:1084A000526842F480625A601A465268204B1A4061
:1084B0001E4B5A601A4652681E4B1A431B4B5A6099
:1084C0001A46D26A1C4B1A40184BDA621A46D26A14
:1084D0001A4B1A43154BDA621A46126842F0806250
:1084E0001A6000BF114A126812F0006FFAD00F4AEA
:1084F000126842F080720D4B1A6000BF0B4A12687E
:1085000012F0007FFAD0094A526822F00302074BAA
:108510005A601A46526842F002025A6000BF034A8B
:10852000526812F0080FFAD07047000000100240A5
:10853000FFFFC3DF0000292000F0FEFF4906010015
:1085400010B5FFF78BFF10BD10B5124800684FF44F
:108550007A71B0FBF1F4601EB0F1807F01D301208D
:108560000FE0601E4FF0E02148610F214FF0FF3017
:10857000FFF724FE00204FF0E0218861072008610A
:10858000002008B100BFFEE70021481EFFF716FEDD
:1085900010BD000004000020B88500080000002085
:1085A00088000000608200084086000888000020E3
:1085B00000200000708200080000000000F36F0639
:1085C0000010014000100140001801400018014057
:1085D0000100000004000000010000000200000093
:1085E0000E06110700020000040000000004000055
:1085F00008000000000801400008014002060206D1
:1086000004060406060606060008014000100140A4
:10861000000C0140010000000020000000400000AC
:10862000020604060306000001000000002000000E
:1086300000400000000201000D0E06282800000086
:04000005080081511D
:00000001FF
