:020000040800F2
:1000000080310020190100082109000819090008A1
:100010001D09000811090008F5090008000000008A
:100020000000000000000000000000002909000896
:1000300015090008000000002509000881090008D2
:1000400033010008330100083301000833010008C0
:1000500033010008330100083301000833010008B0
:1000600033010008330100083301000833010008A0
:100070003301000833010008330100083301000890
:100080003301000833010008330100083301000880
:100090003301000833010008330100083301000870
:1000A0003301000833010008330100083301000860
:1000B000F10900083301000833010008330100088A
:1000C0003301000833010008330100083301000840
:1000D0003301000833010008330100083301000830
:1000E000330100083301000833010008000000005C
:1000F0000000000000000000000000000000000000
:1001000033010008DFF80CD000F0D8FB00480047AE
:10011000DD1C000880310020064880470648004763
:10012000FEE7FEE7FEE7FEE7FEE7FEE7FEE7FEE7A7
:10013000FEE7FEE7890900080501000840EA01031F
:100140009B0703D009E008C9121F08C0042AFAD28D
:1001500003E011F8013B00F8013B521EF9D2704751
:100160002DE9FE4F804681EA0300C00F0C46009047
:1001700021F0004123F00045B8EB0200A94105D26F
:100180004046214690461C460B46024623F000405E
:10019000104347D0270DC7F30A00C3F30A5102905A
:1001A000401A019040286BDAC3F3130040F4801B1F
:1001B0000098924620B10023D2EB030A63EB0B0BAD
:1001C00001985946C0F14002504600F00BFA06462D
:1001D0000D4650465946019A00F023FA10EB0800EC
:1001E0006141002487EA115284EAE7731A4340D040
:1001F000009A62B3019A012A4FEA075215DC001BEC
:1002000061EB02014FF0004202EA0752CDE90042E1
:10021000001C41F5801132462B4600F023FA03B052
:10022000BDE8F08F40462146F9E7001B61EB020173
:10023000001C41F5801300185B412018A2F500173F
:1002400047EB030140EAD570B6196D4111E06D0826
:100250004FEA360645EAC0754FEA0752001B61EBCC
:100260000201001C41F5801149084FEA30000019D5
:10027000514132462B4603B0BDE8F04F00F0E3B9E0
:100280000098012240000023D0EB020263EBE073F0
:10029000009821464FEAE074B8EB000061EB0401DE
:1002A000E9E783F000435BE781F0004158E72DE97F
:1002B000FE4F81EA030404F0004421F00041009461
:1002C0004FF0000B23F0004350EA01045ED052EAE5
:1002D00003045BD0C3F30A54C1F30A552C44A4F2BF
:1002E000F3340194A0FB0254C1F3130141F48011D3
:1002F000C3F3130343F4801301FB024400FB034EDA
:10030000840A970A44EA815447EA8357A4FB0768A2
:1003100002958D0A05FB07854FEA932C04FB0C54CC
:100320002705029D4FEA065847EA1637B5EB080540
:100330006EEB070C870E920E47EA811742EA831292
:10034000A7FB0201B6EB0B0164EB00042B0D43EAA3
:100350000C335E1844EB1C50DA465146E7FB0201B1
:10036000C5F313044FEA0B3343EA14534FEA043244
:10037000019C43EA0603A4F10C040294009CCDE91D
:1003800000B400F06FF903B0BDE8F08F0020014623
:10039000F9E72DE9F04D81EA030404F0004B21F068
:1003A000004514464FF0000A23F0004150EA0502D0
:1003B00020D054EA01021DD0C5F30A570246C5F306
:1003C0001303C1F31300C1F30A5640F4801543F43C
:1003D0008013A7EB0608101BD64608F2FD3873EB16
:1003E000050002D308F1010801E092185B41B8F161
:1003F000000F03DA00200146BDE8F08D00204FF425
:100400008011064684460EE0171B73EB050705D3E3
:10041000121B63EB050306434CEA010C49084FEA43
:10042000300092185B4150EA0107EDD152EA030017
:1004300012D082EA040083EA0501084305D0101BAC
:10044000AB4106D20122002306E000224FF0004318
:1004500002E06FF0010253101AEB06004CEB08515A
:1004600010EB0A0041EB0B01BDE8F04D00F0EBB8DA
:1004700030B5041E71F1000404DB4FF0004440422B
:1004800064EB0101141E73F1000405DB1C464FF000
:100490000043524263EB0403101A8B4101D2012046
:1004A00030BD002030BD30B5041E71F1000404DB06
:1004B0004FF00044404264EB0101141E73F100044C
:1004C00005DB1C464FF00043524263EB0403101A55
:1004D0008B4101D3012030BD002030BD0EB5C10FCE
:1004E00080EAE0700844CA07002140F233438DE8F7
:1004F0000E000A460B4600F0B5F803B000BD0EB57D
:1005000040F2334102910021CDE900110A460B4629
:1005100000F0A8F803B000BD70B5C1F30A5201F0B5
:1005200000450024C1F3130140F2FF3341F4801170
:100530009A4201DA002070BD40F233439A42A2F29F
:10054000334203DC524200F05CF800E090402C4360
:10055000F1D0404270BD30B50B460146002020224C
:10056000012409E021FA02F59D4205D303FA02F5C0
:10057000491B04FA02F52844151EA2F10102F1DC20
:1005800030BD2DE9F05F0546002092469B46884627
:100590000646814640241BE02846414647462246FF
:1005A00000F02FF853465A46C01A914110D3114615
:1005B0001846224600F016F82D1A67EB01084F4640
:1005C00022460120002100F00DF817EB00094E41F2
:1005D000201EA4F10104DFDC484631462A4643468A
:1005E000BDE8F09F202A04DB203A00FA02F1002047
:1005F00070479140C2F1200320FA03F31943904061
:100600007047202A04DB203A21FA02F000217047CB
:1006100021FA02F3D040C2F120029140084319466A
:100620007047202A06DBCB17203A41FA02F043EA52
:10063000E07306E041FA02F3D040C2F1200291409B
:1006400008431946704710B5141E73F1000408DA08
:10065000401C41F1000192185B411A4301D120F086
:10066000010010BD2DE9F04D92469B4611B1B1FA43
:1006700081F202E0B0FA80F220329046FFF7B2FF3A
:1006800004460F4640EA0A0041EA0B0153465A4627
:10069000084313D0114653EA010019D0C8F14002B3
:1006A0005046FFF7AEFF05460E46504659464246B5
:1006B000FFF798FF084305D0012004E020463946A3
:1006C000BDE8F08D0020054346EAE0762C43374331
:1006D0000A986305E40AA0EB08000022FD0A44EA38
:1006E00047540A3002D500200146E9E701051019F8
:1006F0006941DDE9084500196941BDE8F04DA2E70F
:100700002DE9F04D00231A461B1A8A4103DB002015
:100710000146BDE8F08DC1F30A52C1F3130141F463
:1007200080154FF0000BD10702D100186D41521E09
:100730000027044640F2FF11384601EB620A3E46AC
:100740008046024600204FF48011FFF75AFFC2197D
:100750007141BB1846EB0100B4EB030C75EB000CC8
:1007600004D3E41A65EB000517460E46241908F178
:1007700001006D4180463428E3DDF91946EB06009F
:10078000091BA84103D24FF0FF32134601E00022BB
:1007900013461BEB070046EB0A51BDE8F04DFFF78F
:1007A00052BF00002DE9F041054621F000400C4603
:1007B000284309D0C4F30A5040F23341884205DD92
:1007C00028462146BDE8F0812846FBE740F2FE318D
:1007D000884210DC0CDB4FEA043040EA155050EA46
:1007E000053105D0104804F0004101430020E9E73D
:1007F00000200146E6E7A0F233404642C6F140023F
:1008000028462146FFF7EEFE074688462846214641
:100810003246FFF7F6FE43463A46FFF714FF3246EC
:10082000BDE8F041FFF7DEBE0000F03FC1F30A5221
:10083000C1F3130140F2FF3341F480119A4202DA0E
:1008400000200146704740F233439A42A2F23342FD
:1008500002DC5242FFF7D5BEFFF7C4BE30B5041E1E
:1008600071F1000404DB4FF00044404264EB0101ED
:10087000141E73F1000405DB1C464FF00043524286
:1008800063EB04038B4208BF824230BD30B5041EC7
:1008900071F1000404DB4FF00044404264EB0101BD
:1008A000141E73F1000405DB1C464FF00043524256
:1008B00063EB0403994208BF904230BD064C074DDC
:1008C00006E0E06840F0010394E807009847103420
:1008D000AC42F6D3FFF71AFC60650008806500089B
:1008E00070B521F0004303430CD0C1F30A55002436
:1008F000D5EB040564EB0403D617AD1AB34102DB54
:100900000020014670BD201841EB025170BD00006F
:10091000FFE7FEE7FFE7FEE7FFE7FEE7FFE7FEE7AB
:10092000FFE7FEE7FFE7FEE7FFE7FEE780B582B0FF
:10093000009000980138B0F1807F03D3FFE70120D9
:10094000019019E0009801384EF21401CEF2000136
:1009500008604FF0FF300F2100F04EF84EF2180102
:10096000CEF20001002008604EF21002CEF200022A
:10097000072111600190FFE7019802B080BD0000DF
:1009800080B500F09FFB80BD80B541F20001C4F24C
:100990000201086840F00100086041F20403C4F25B
:1009A000020318680C22CEF6FF0210401860086897
:1009B0004FF6FF72CFF6F66210400860086820F428
:1009C0008020086018684FF6FF7CCFF2007C00EAB8
:1009D0000C00186008681040086041F20801C4F279
:1009E00002014FF41F00086002F032FB80BD0000DE
:1009F000FFE7FEE7FFE7FEE782B08DF80700009112
:100A00009DF9070000280AD4FFE7009800019DF92E
:100A100007104EF20042CEF2000288540BE000981C
:100A200000019DF8071001F00F014EF61452CEF2AE
:100A300000028854FFE702B07047000081B00090C8
:100A40000099886840F008008860FFE70098806897
:100A50000007002801D5FFE7F8E70099886840F013
:100A600004008860FFE7009880684007002801D5EF
:100A7000FFE7F8E701B0704784B003908DF80B10E2
:100A800001929DF80B0001460091012804D0FFE778
:100A90000098022812D023E00399C86A20F470005D
:100AA000C86201990020CFF6F07000EB015000F40D
:100AB00070020399C86A1043C86212E00399886BF8
:100AC00020F44010886301990020CFF6F07000EB0D
:100AD000015000F440120399886B1043886300E0D2
:100AE000FFE704B07047000082B0019000910098C9
:100AF00030B1FFE70199886840F40060886005E044
:100B00000199886820F400608860FFE702B07047B0
:100B100080B586B005900598049042F20041C4F279
:100B20000101884210D0FFE7049842F60001C4F2A8
:100B30000101884211D0FFE7049843F60041C4F256
:100B40000101884212D01AE040F20930039001F00E
:100B500055FA039801F03EFA12E040F20A30029092
:100B600001F04CFA029801F035FA09E040F20F303A
:100B7000019001F043FA019801F02CFA00E0FFE740
:100B800006B080BD81B000900099886840F4807004
:100B9000886001B07047000081B0009000988068C4
:100BA000C00730B9FFE70099886840F0010088600D
:100BB000FFE701B07047000082B001908DF803108C
:100BC0008DF802209DF80200C0B1FFE79DF80300F8
:100BD000C00730B1FFE70199886840F48010886051
:100BE000FFE79DF803008007002806D5FFE701997D
:100BF000886840F400408860FFE717E09DF8030034
:100C0000C00730B1FFE70199886820F48010886040
:100C1000FFE79DF803008007002806D5FFE701994C
:100C2000886820F400408860FFE7FFE702B0704763
:100C300084B003908DF80B1001929DF80B000146D3
:100C40000091012804D0FFE7009802280BD015E09E
:100C50000399886820F460208860019A0399886865
:100C6000104388600BE00399886820F4E0408860B6
:100C7000019A039988681043886000E0FFE704B098
:100C80007047000081B0009042F20441C4F20101BB
:100C9000086820F470200860009A08681043086013
:100CA00001B0704785B004908DF80F108DF80E20BC
:100CB00002939DF80F0005281CDCFFE70498406BA9
:100CC00001909DF80F0000EB80011F2000FA01F158
:100CD0000198884301909DF80E009DF80F1001EBDC
:100CE000810100FA01F101980843019001980499EB
:100CF00048634AE09DF80F000B281FDCFFE70498CB
:100D0000006B01909DF80F0000EB8000A0F11E0128
:100D10001F2000FA01F10198884301909DF80E0010
:100D20009DF80F1001EB81011E3900FA01F10198C5
:100D30000843019001980499086325E09DF80F008D
:100D40000F281FDCFFE70498C06A01909DF80F0090
:100D500000EB8000A0F13C011F2000FA01F1019896
:100D6000884301909DF80E009DF80F1001EB810162
:100D70003C3900FA01F10198084301900198049967
:100D8000C86200E0FFE7FFE7FFE79DF80E000928D3
:100D90001BDCFFE70498006900909DF80E0000EB53
:100DA0004001072000FA01F1009888430090029862
:100DB0009DF80E1001EB410100FA01F10098084383
:100DC000009000980499086124E09DF80E00112815
:100DD0001EDCFFE70498C06800909DF80E0000EB51
:100DE0004000A0F11E01072000FA01F1009888439D
:100DF000009002989DF80E1001EB41011E3900FA97
:100E000001F100980843009000980499C86000E040
:100E1000FFE7FFE705B0704783B0029001918DF8BE
:100E200003209DF8030020B3FFE79DF80500C007ED
:100E300030B1FFE70299486840F480704860FFE7EE
:100E40009DF805004007002806D5FFE7029948688D
:100E500040F480604860FFE79DF8040080070028A8
:100E600006D5FFE70299886840F002008860FFE736
:100E700023E09DF80500C00730B1FFE702994868FC
:100E800020F480704860FFE79DF8050040070028C7
:100E900006D5FFE70299486820F480604860FFE7C4
:100EA0009DF804008007002806D5FFE702998868AE
:100EB00020F002008860FFE7FFE703B07047000002
:100EC00085B0039002910192039802990844009022
:100ED00000980199884203D2FFE70098049004E04B
:100EE00000980199401A0490FFE7049805B07047F4
:100EF00084B0039002918DF807200093039840F28C
:100F00002E21C2F200010A78130140F23022C2F20F
:100F10000002D05002980B7802EB031358609DF842
:100F200007000B7802EB0313187200980B7802EBA2
:100F30000312D06008780130087004B070470000D8
:100F400080B58EB000200490ADF834000C900B906A
:100F50000A90099008900790069046F29C40C0F6CF
:100F60000000039002F0F2FB46F2F630C0F60000FB
:100F700002F0ECFB039802F0E9FB04988DF81700EF
:100F8000FFE79DF8170040F22E21C2F20001097818
:100F900088427ADAFFE79DF8171040F23020C2F25B
:100FA000000000EB0110007A78B9FFE79DF8170008
:100FB000010140F23020C2F20000415846F23F5099
:100FC000C0F6000002F0C2FB49E09DF8171040F2A5
:100FD0003020C2F2000000EB0110007A012818D185
:100FE000FFE79DF81700010140F23020C2F2000037
:100FF000425846F24851C0F6000106A8029002F09D
:10100000B5FB029946F23650C0F6000002F09EFB96
:1010100024E09DF8171040F23020C2F2000000EBEF
:101020000110007A022818D1FFE79DF8170001018E
:1010300040F23020C2F20000425846F25151C0F650
:10104000000106A8019002F091FB019946F236508A
:10105000C0F6000002F07AFBFFE7FFE7FFE79DF82C
:10106000171040F23020C2F2000000EB011041687E
:1010700046F29040C0F6000002F068FBFFE79DF8E2
:10108000170001308DF817007BE746F29C40C0F650
:10109000000002F05BFB00200EB080BD81B000902C
:1010A000009840F2D031C2F200010860FFE740F240
:1010B000D030C2F20000006808B1FFE7F7E701B0E6
:1010C0007047000040F2D030C2F20000006840B12A
:1010D000FFE740F2D031C2F2000108680138086031
:1010E000FFE7704780B582B001908DF8031001983A
:1010F0009DF8031000F034F910B9FFE7FFE7FEE7B1
:1011000001989DF8031001EB810100EB81018868D3
:1011100040F00100886002B080BD000080B582B060
:1011200001908DF8031001989DF8031000F018F954
:1011300010B9FFE7FFE7FEE701989DF8031001EB08
:10114000810100EB8101886840F02000886002B0D6
:1011500080BD000080B582B001908DF80310019829
:101160009DF8031000F0FCF810B9FFE7FFE7FEE779
:1011700001989DF8031001EB810100EB8101886863
:1011800020F00100886001989DF8031001EB8101B7
:1011900000EB81010020886001999DF8032002EB9B
:1011A000820201EB8201C86001999DF8032002EBE5
:1011B000820201EB8201086101999DF8032002EB94
:1011C000820201EB820148619DF8030081000F203B
:1011D00000FA01F2019948681043486002B080BDEE
:1011E00080B584B003908DF80B10019203989DF8A0
:1011F0000B1000F0B5F810B9FFE7FFE7FEE7019824
:10120000006803999DF80B2002EB820201EB82013A
:1012100008610198806803999DF80B2002EB820217
:1012200001EB820148610198008A03999DF80B2027
:1012300002EB820201EB8201C86003989DF80B105B
:1012400001EB810100EB810080680090009820F4A0
:101250007C50009001994868CA684969104301436D
:10126000009808430090009803999DF80B2002EB2A
:10127000820201EB820188600198007E01280CD176
:10128000FFE703989DF80B1001EB810100EB810152
:10129000886840F0400088600BE003989DF80B10D0
:1012A00001EB810100EB8101886820F0400088603B
:1012B000FFE70198407E01280CD1FFE703989DF8D5
:1012C0000B1001EB810100EB8101886840F0800088
:1012D00088600BE003989DF80B1001EB810100EB97
:1012E0008101886820F080008860FFE70198807E97
:1012F00060B9FFE703989DF80B1001EB810100EB4B
:101300008101886820F0100088600BE003989DF848
:101310000B1001EB810100EB8101886840F01000A7
:101320008860FFE704B080BD80B582B001908DF881
:10133000031001989DF8031000F012F810B9FFE7B0
:10134000FFE7FEE701989DF8031001EB810100EB38
:101350008101886820F48040886002B080BD000070
:1013600082B001908DF8031001208DF802000198E1
:1013700040F20041C4F2020188420AD1FFE79DF821
:101380000300052804DBFFE700208DF80200FFE7DB
:10139000FFE79DF8020002B07047000081B00090A6
:1013A000009900200860009948600099087600992B
:1013B00088600099C8600099487600990861009992
:1013C00088760099486101B07047000084B00390AE
:1013D0008DF80B108DF80A20039A40F20041C4F2F8
:1013E0000101086890430860039A40F20441C4F286
:1013F0000101086890430860039A40F20841C4F272
:101400000101086890430860039A40F20C41C4F25D
:1014100001010868904308609DF80B0001460191A6
:1014200020B1FFE70198012809D011E0039A40F2AA
:101430000041C4F2010108681043086009E0039A02
:1014400040F20441C4F2010108681043086000E062
:10145000FFE79DF80A000146009140B1FFE70098C0
:10146000012815D0FFE70098022822D032E0039A25
:1014700040F20841C4F20101086810430860039A71
:1014800040F20C41C4F2010108689043086022E078
:10149000039A40F20841C4F20101086890430860D1
:1014A000039A40F20C41C4F201010868104308603D
:1014B00011E0039A40F20841C4F2010108681043A8
:1014C0000860039A40F20C41C4F20101086810431D
:1014D000086000E0FFE704B07047000080B582B00C
:1014E000019000919DF8041043F60000C4F2010041
:1014F00002F016F8FFE743F60000C4F201000721EE
:1015000002F07EF808B9FFE7F5E7019802B080BD68
:1015100080B584B000200390FFE703981F2842DCC9
:10152000FFE70398FEF7DAFF42F61852C5F244428D
:1015300042F2FB13C4F21903FEF7B9FE40F218039E
:10154000C2F200031A685B68FEF7B1FE00220023B6
:10155000C4F24003FEF71DFF01910090009801992D
:1015600003F0A0FA0246DDF80CC040F2D023C2F22C
:10157000000303EBCC0043F83C2041600098019944
:1015800003F028FB0246DDF80CC041F28003C2F2F2
:10159000000303EBCC0043F83C204160FFE70398D5
:1015A00001300390B9E704B080BD000082B0019023
:1015B000009100980199486102B0704782B0019093
:1015C000009100980199086102B0704782B08DF8CF
:1015D00007008DF80610002000909DF8060000F02E
:1015E000030081000F20884000909DF8060003282A
:1015F00014DCFFE7009A0821C4F201010868904357
:1016000008609DF807009DF8062002F00302920092
:1016100000FA02F208681043086047E09DF80600EF
:10162000072814DCFFE7009A0C21C4F201010868C6
:10163000904308609DF807009DF8062002F0030221
:10164000920000FA02F20868104308602DE09DF84D
:1016500006000B2814DCFFE7009A1021C4F20101F8
:101660000868904308609DF807009DF8062002F086
:101670000302920000FA02F208681043086013E0C7
:10168000009A1421C4F201010868904308609DF893
:1016900007009DF8062002F00302920000FA02F211
:1016A000086810430860FFE7FFE7FFE702B07047F4
:1016B00087B006900591049203930020019000905A
:1016C000059800F00F0001909DF81400C006002856
:1016D00005D5FFE70499019808430190FFE7002032
:1016E000ADF80A00FFE7BDF80A00072842D8FFE777
:1016F000BDF80A100398C840C007A0B3FFE70698DA
:1017000000680090BDF80A0081000F2000FA01F186
:101710000098884300900198BDF80A10890000FAEB
:1017200001F10098084300900598282809D1FFE7A7
:10173000BDF80A10012088400399084006994861C5
:101740000DE00598482809D1FFE7BDF80A100120EF
:1017500088400399084006990861FFE7FFE7009871
:1017600006990860FFE7FFE7BDF80A000130ADF811
:101770000A00B8E70820ADF80A00FFE7BDF80A0044
:101780000F2846D8FFE7BDF80A100398C840C007E5
:10179000C0B3FFE7069840680090BDF80A006FF0FC
:1017A0001F0101EB80020F2000FA02F20098904323
:1017B00000900198BDF80A2001EB820100FA01F1C6
:1017C0000098084300900598282809D1FFE7BDF844
:1017D0000A100120884003990840069948610DE0ED
:1017E0000598482809D1FFE7BDF80A100120884074
:1017F0000399084006990861FFE7FFE700980699FA
:101800004860FFE7FFE7BDF80A000130ADF80A00C5
:10181000B4E707B07047000086B005908DF813104C
:10182000002003900290019000909DF817000006A0
:10183000002806D5FFE71C20C4F2010000680190D3
:1018400005E00420C4F2010000680190FFE705985C
:10185000C0F303400090BDF814000390059800F415
:101860004010B0F5401F0CD1FFE7019820F07060E8
:1018700001900421C4F20101086820F07060086042
:1018800023E09DF81600C00600280DD5FFE700995B
:1018900003208840029002990198884301900198A2
:1018A00040F0706001900FE00398059A6FF00F010F
:1018B00001EA524100FA01F1019888430190019830
:1018C00040F070600190FFE7FFE79DF8130060B102
:1018D000FFE70398059A6FF00F0101EA524100FA01
:1018E00001F1019808430190FFE79DF817000006F9
:1018F000002806D5FFE701981C21C4F20101086009
:1019000005E001980421C4F201010860FFE706B078
:101910007047000082B0019000910098012806D124
:10192000FFE70199086840F48060086005E00199CC
:10193000086820F480600860FFE702B0704700008C
:1019400080B588B0079006910592022000F060FAF9
:10195000049004984DF68361C4F21B31A0FB011082
:10196000800C029002983F2803D3FFE73F200290AB
:10197000FFE7079840680090009820F03F00009033
:1019800002990098084300900098079948600698CB
:1019900048F2A061C0F20101884235D8FFE70498FF
:1019A0004DF68361C4F21B31A0FB0101012000EB65
:1019B0009140019001983F2804D3FFE707993F2009
:1019C00008620CE00198022804D8FFE7079902207A
:1019D000086203E0019807990862FFE7FFE70498AF
:1019E00006994900B0FBF1F003900398032803D84F
:1019F000FFE704200390FFE7039A6FF31F32079974
:101A0000C8691043C8614AE0069841F68021C0F2D7
:101A10000601884241D8FFE702984FF49671484387
:101A200044F6D351C1F26201A0FB0101012000EB99
:101A3000911007990862059868B9FFE7049806991C
:101A400001EB4101B0FBF1F003900799C86920F464
:101A50008040C8610CE00498069919225143B0FBFC
:101A6000F1F003900799C86940F48040C861FFE72E
:101A7000BDF80C00000528B9FFE7039840F001000D
:101A80000390FFE70799C86940F40040C861039AD2
:101A90000799C8691043C86100E0FFE7FFE708B095
:101AA00080BD000080B582B040F2036000F07EFA95
:101AB00040F2157000F07AFA40F60040C4F20100DE
:101AC0001C210322C023FFF7F3FD45F20040C4F2BE
:101AD0000000019048F2A061C0F2010100220092D2
:101AE000FFF72EFF009A01987823114600F074F852
:101AF000019800F011F801980121FFF70BFF02B0E7
:101B000080BD000082B001908DF803109DF80300A5
:101B10000199086102B0704781B00090009908688F
:101B200040F00100086001B07047000082B00190F1
:101B3000ADF80210BDF8020040F20151884205D113
:101B4000FFE701984069019880690CE0BDF8020048
:101B500000F01F02012101FA02F30199820988585D
:101B600098438850FFE702B07047000083B00190AF
:101B7000ADF802100198BDF8021089094058BDF86F
:101B8000021001F01F01C840C00720B1FFE701208B
:101B90008DF80B0003E000208DF80B00FFE79DF8A7
:101BA0000B0003B07047000083B0029001910092D7
:101BB0000098023028B9FFE7019820F00100019059
:101BC00004E0019840F001000190FFE701980299BC
:101BD000086103B07047000085B004900391029241
:101BE000019300200090049800680090009820F075
:101BF000020000900399009808430090009804990F
:101C0000086001986FF39F200190029801990843A2
:101C10000499886005B0704781B000900099086809
:101C200040F48070086001B07047000081B00090FF
:101C30000099086840F40070086001B07047000027
:101C400080B582B08DF807009DF80700014600912D
:101C5000012804D0FFE70098022809D011E040F6DF
:101C60000040C4F201004FF40051FFF79FFC09E06F
:101C700040F60040C4F201004FF48051FFF796FC9B
:101C800000E0FFE702B080BD80B586B040F203609F
:101C9000009000F08BF9009800F088F940F60040C1
:101CA000C4F20100049010210191032202924FF42A
:101CB00000530393FFF7FCFC0199029A04984FF438
:101CC00080530593FFF7F4FC03990498FFF776FC23
:101CD00004980599FFF772FC06B080BD80B584B00A
:101CE00000200290039001F0B7F901F021F900F013
:101CF000D9FAFFF70DFCFFF7C7FF00F007FA01F074
:101D0000C5F901F05BFB00F08BFA00F08BF9FFF7EF
:101D1000C9FE00F0A7FE00F02FF80120FFF790FFAA
:101D2000029A46F2E230C0F6000046F2E731C0F611
:101D3000000140F64173C0F60003FFF7D9F8FFE752
:101D400000F0A0FB40F6E870C2F2000040F2E06153
:101D5000C2F20001026843680868D1F804C069460D
:101D6000C1F804C0086046F2D430C0F6000001F0AB
:101D7000EDFC00F0DBFDE3E780B54FF4C06000F060
:101D800001F880BD81B0009000980021C0F2FA51A6
:101D900008434EF60C51CEF20001086001B07047C6
:101DA00083B0029041F20400C4F202000068019086
:101DB000019843F6FF71CEF6FF710840019002983A
:101DC0000090042808D3FFE7009805280AD0FFE711
:101DD0000098072806D011E00299019840EA813066
:101DE00001900CE0029820F0040002900299019802
:101DF00040EA813040F08050019000E0FFE7019818
:101E000041F20401C4F20201086003B0704700000F
:101E100097B08DF85B000020149040F20671C0F678
:101E20000811099140F20121C0F203410891079085
:101E30000690059104900391029041F20400C4F2CF
:101E400002000068C0F3810015901598019040B120
:101E5000FFE7019801280AD0FFE7019802280CD07B
:101E60005AE041F20020C0F27A0013905AE041F6A5
:101E70000030C0F2B700139054E041F20400C4F205
:101E80000200006800F480300F900F98B0F5803F9A
:101E900019D1FFE741F60030C0F2B7000C9041F2D3
:101EA0000400C4F20200006800F400300E900E98A6
:101EB000B0F5003F06D1FFE748F68050C0F25B0066
:101EC0000C90FFE705E040F60010C0F23D000C90DA
:101ED000FFE741F20400C4F202000168C1F383414C
:101EE0000D9100680001002805D5FFE70D9840F02E
:101EF00010000D90FFE70D980E2804D8FFE70D980D
:101F000002300D9003E00D9801300D90FFE70C9822
:101F10000D994843139005E041F20020C0F27A0089
:101F20001390FFE741F20400C4F202000168C9B255
:101F300009090B910B9A06A9895C0A9113990A9ACF
:101F4000D14012910168C1F302210B910B9A04A9AF
:101F5000895C0A9112990A9AD14011910068C0F3E4
:101F6000C2200B900B9902A8405C0A9012980A9923
:101F7000C84010909DF85B0001460091032810D8DE
:101F80000099DFE801F00205080B1398149009E0AE
:101F90001298149006E01198149003E01098149091
:101FA00000E0FFE7149817B07047000081B0ADF86B
:101FB0000200BDF8020000F01F02012101FA02F345
:101FC000810941F20002C4F2020288581843885085
:101FD00001B0704781B0ADF80200BDF8020000F01A
:101FE0001F02012101FA02F3810941F20002C4F249
:101FF000020288589843885001B0704781B0ADF80C
:102000000200BDF8020000F01F02012101FA02F3F4
:10201000810941F20002C4F2020288581843885034
:1020200001B0704780B58CB040F20960FFF7BEFF89
:102030000320FFF7B5FE0020C4F20200009000214B
:102040000291FFF787F80098029942F24C42C4F2DD
:10205000010205928DF82C1041F20002C2F200023A
:102060000792012203928DF82D204FF48072019285
:1020700006924FF4806208928DF82E104022099249
:102080004FF400520A9205AAFFF7AAF800980299A5
:10209000FFF744F800980299FFF724F842F2004055
:1020A000C4F201000490FEF733FD0298FEF7EAFD4A
:1020B0000199039A0498FEF7AFFE02990498FEF77F
:1020C00013FD039A04981146FEF7D6FC029B049870
:1020D00009221946FEF7E6FD039904984FF44022C1
:1020E000FEF7A6FD039A04981146FEF765FD0498D5
:1020F000FEF748FD0498FEF74FFD0398FEF7CEFF6C
:102100000498FEF79BFC0CB080BD000080B58AB03F
:1021100040F20260FFF74AFF40F60000C4F20100FF
:102120000090102101910322069204230593FFF7EA
:10213000BFFA00980199069A02230393FFF7B8FAB1
:1021400000980199069A01230893FFF7B1FA0098C5
:102150000199069A8023FFF7ABFA00980199069A35
:102160004023FFF7A5FA00980199069A2023FFF76C
:102170009FFA0098019B069A1946FFF799FA009872
:102180000199069A0823FFF793FA00980199069A95
:102190004FF400630793FFF78BFA00980199069AB2
:1021A0004FF48073FFF784FA00980199069A4FF470
:1021B0008053FFF77DFA00980199069A4FF4004387
:1021C000FFF776FA40F20360FFF7F0FE069A089BED
:1021D00040F60040C4F20100049014210291FFF780
:1021E00067FA02990498069A089BFFF761FA039B25
:1021F0000498069A00210991FFF75AFA0498059964
:10220000069A079BFFF754FA09980B21FFF7DEF9AE
:1022100007980899099AFFF7D9F80AB080BD00001D
:1022200080B58AB04FF4A060FFF7C0FE0020C4F272
:102230000200019001210291FEF78CFF03A800909B
:10224000FFF7ACF8009A019802998DF8261040F239
:10225000E863C2F2000305938DF825104FF4006384
:1022600006934FF40073079340F60C0CC4F2010C74
:10227000CDF80CC04FF0000C8DF824C004934FF43F
:1022800040530893FEF7ACFF01980299FEF746FF12
:1022900001980299FFF748F801980299FEF722FF8A
:1022A0000AB080BD80B5ADF5127D44F68861C0F6F8
:1022B000000112A84FF40072FDF740FF4FF001300B
:1022C00011904FF0807010900020089007900690B9
:1022D0000590049003900290FFE702990020B0EB74
:1022E000512F40F0CC80FFE702980F900F984021CB
:1022F0004FF400720192FEF7E3FD019A0E900F98E1
:102300008021FEF7DDFD019A0D900F98C021FEF7A8
:10231000D7FD019A0C900F984FF48071FEF7D0FD15
:10232000019A0B900F984FF4A071FEF7C9FD019A26
:102330000A900F984FF4C071FEF7C2FD019A099000
:102340000F984FF4E071FEF7BBFD08900F99002045
:10235000FF29014688BF012106910F9A012191436F
:1023600005910F99013901F00701B1FA81F149098D
:10237000049103900F9912A8405C28B1FFE70398DD
:1023800040F004000390FFE70E9912A8405C28B1CA
:10239000FFE7039840F002000390FFE70D9912A8B1
:1023A000405C28B1FFE7039840F001000390FFE78D
:1023B0000C9912A8405C28B1FFE7039840F0800018
:1023C0000390FFE70B9912A8405C28B1FFE7039840
:1023D00040F040000390FFE70A9912A8405C28B142
:1023E000FFE7039840F020000390FFE7099912A847
:1023F000405C28B1FFE7039840F010000390FFE72E
:10240000089912A8405C28B1FFE7039840F0080043
:102410000390FFE7079910A8405C28B1FFE70398F5
:1024200040F400600390FFE7049828B1FFE70398A9
:1024300040F480700390FFE7039840F480500390CD
:10244000069828B1FFE7039840F400400390FFE7A7
:102450000398029A40F2E861C2F2000141F82200BA
:102460000798013007900798082803D3FFE700205A
:102470000790FFE7FFE70298013002902DE70DF586
:10248000127D80BD80B596B00020159014901390F9
:10249000FFE713983F283CD8FFE79DF84C00C007A2
:1024A000C8B1FFE7139941F20000C2F2000030F812
:1024B0001100FEF724F80246DDF854C040F2D8536C
:1024C000C2F2000303EBCC0043F83C2041601598B6
:1024D0000130159018E0139941F20000C2F200009B
:1024E00030F81100FEF70BF80246DDF850C040F658
:1024F000E863C2F2000303EBCC0043F83C204160E8
:10250000149801301490FFE7FFE7139801301390FF
:10251000BFE700201290FFE712981F2829D8FFE795
:10252000DDF848C0CDF828C040F2D850C2F2000013
:1025300000EBCC0150F83C00496840F6E862C2F27A
:10254000000202EBCC0352F83C205B68FDF7A9FEC9
:10255000DDF828C0024640F2D833C2F2000303EB94
:10256000CC0043F83C204160FFE712980130129004
:10257000D2E700201190FFE711981F2858D8FFE7F5
:10258000119840F2D832C2F20002079202EBC00169
:1025900052F83020039249680291012120220692CC
:1025A000FEF78EFC0299079A8446039802EBCC034F
:1025B00052F83C205B68FDF7D3FD069A0590049124
:1025C00011980221FEF77CFC0499079A844605982D
:1025D00002EBCC0352F83C205B68FDF7C1FD069A84
:1025E0000990089111980321FEF76AFC079A08994F
:1025F0008446099802EBCC0352F83C205B68FDF757
:10260000AFFD00220023C4F21003FDF7C2FE024614
:10261000DDF844C040F2D843C2F2000303EBCC0023
:1026200043F83C204160FFE7119801301190A3E787
:1026300000200F900E900D900C900B90FFE70B98E0
:102640001F2843D8FFE7DDF82CC040F2D840C2F283
:102650000000009000EBCC0150F83C00496840F2CB
:10266000D022C2F2000202EBCC0352F83C205B689D
:10267000FDF71DFE02460B460E980F99FDF770FD03
:102680000246009801920A4601990F920E91DDF8D8
:102690002CC000EBCC0150F83C00496841F28002AC
:1026A000C2F2000202EBCC0352F83C205B68FDF75B
:1026B000FEFD02460B460C980D99FDF7F2FD0D91BB
:1026C0000C90FFE70B9801300B90B8E70E980F9A2B
:1026D00040F6F871C2F200014A6008600C980D9B48
:1026E00040F2D862C2F20002536010600868496884
:1026F00000231A46FDF7BCFE40BBFFE740F2D8615D
:10270000C2F200010868496800231A46FDF7B0FECE
:10271000E0B9FFE740F2D861C2F2000140F6F8707C
:10272000C2F20000026843680868496802F0ECF8E9
:102730000A4640F6F071C2F200014A60086040F2B9
:102740002001C2F2000101200860B2E040F6F871F9
:10275000C2F200010868496800231A46FDF7A3FE8B
:1027600040BBFFE740F2D861C2F200010868496847
:1027700000231A46FDF77CFEE0B9FFE740F2D8617E
:10278000C2F2000140F6F870C2F20000026843682D
:102790000868496802F0B8F80A4640F6F071C2F2DB
:1027A00000014A60086040F22001C2F200010220EC
:1027B00008607DE040F6F871C2F2000108684968DF
:1027C00000231A46FDF76FFE90BBFFE740F2D86189
:1027D000C2F200010868496800231A46FDF763FE4B
:1027E00030BBFFE740F2D861C2F2000140F6F8705A
:1027F000C2F20000026843680868496802F084F881
:1028000042F61852C5F2444242F2FB13C4F21903D5
:10281000FDF7A6FC0A4640F6F071C2F200014A60DC
:10282000086040F22001C2F20001032008603EE08F
:1028300040F6F871C2F200010868496800231A46A0
:10284000FDF716FE90BBFFE740F2D861C2F200012F
:102850000868496800231A46FDF725FE30BBFFE7EC
:1028600040F2D861C2F2000140F6F870C2F20000F6
:10287000026843680868496802F046F842F6185250
:10288000C5F2444242F2FB13C4F21903FDF768FC9F
:102890000A4640F6F071C2F200014A60086040F258
:1028A0002001C2F2000104200860FFE7FFE7FFE714
:1028B000FFE740F6F071C2F20001086849680022A3
:1028C00048F20003C4F26603FDF7F1FC42F6185229
:1028D000C5F2444242F2FB13C4F20903FDF759FD6D
:1028E00002F02EF90A4640F6E871C2F200014A6091
:1028F000086040F6F871C2F200010868496821F0EA
:10290000004140F2D863C2F200031A685B6823F00A
:102910000043FDF725FC02F0ADF90A4640F2E06104
:10292000C2F200014A60086016B080BD80B586B072
:10293000282001908DF81700062002908DF81600CF
:10294000002000908DF814004FF07830049040F68D
:10295000E871C2F2000108684968FDF7DDFD024632
:1029600046F2DF31C0F6000104A8039000F0FEFE3D
:10297000009800F059F80198029900F0F1F80398D6
:1029800040F20802C2F2000211685268012300F00E
:10299000FFF900F019F906B080BD000081B08DF894
:1029A00003008DF802108DF801209DF803007F28A8
:1029B00005DCFFE79DF80200202801DBFFE730E09F
:1029C0009DF80100012816D1FFE79DF8022002F0D2
:1029D0000701012000FA01F39DF803006FF0700178
:1029E00001EA0211421840F22E01C2F20001885C95
:1029F0001843885415E09DF8022002F007010120D9
:102A000000FA01F39DF803006FF0700101EA021172
:102A1000421840F22E01C2F20001885C98438854AB
:102A2000FFE701B07047000082B08DF8070000207A
:102A30000090FFE700990020B0EB512F10D1FFE785
:102A40009DF80700002818BFFF20009A40F22E01D1
:102A5000C2F200018854FFE7009801300090E9E7D6
:102A600002B0704780B584B000F068F8642000F0D0
:102A7000BBF90020029000F085F82020019000F0C2
:102A800065F9029800F062F9B02000F05FF9C82003
:102A900000F05CF9029800F059F9102000F056F9A6
:102AA000402000F053F9FF2000F04AF8A12000F088
:102AB0004DF9A62000F04AF9A82000F047F91F20A0
:102AC00000F044F9A42000F041F9D32000F03EF9D1
:102AD000029800F03BF9D52000F038F9F02000F022
:102AE00035F9D92000F032F9222000F02FF9DA2050
:102AF00000F02CF9022000F029F9DB2000F026F983
:102B0000019800F023F98D2000F020F9142000F046
:102B10001DF90120039000F035F80298FFF784FFBB
:102B200000F052F8029A039840F22801C2F2000124
:102B30000A804A80087104B080BD00007047000020
:102B400080B582B08DF8070081208DF8060000F076
:102B5000FDF89DF8070000F0F9F802B080BD000014
:102B600081B08DF803008DF802109DF8030040F24B
:102B70002801C2F2000108809DF80200488001B0DF
:102B80007047000080B582B08DF807009DF80700FF
:102B900050B1FFE7AF208DF8060040F22801C2F2E5
:102BA00000010120487109E0AE208DF8060040F2D6
:102BB0002801C2F2000100204871FFE79DF80600DD
:102BC00000F0C4F802B080BD80B582B000208DF85E
:102BD0000700FFE79DF8070003281EDCFFE79DF8CC
:102BE0000700B030C0B200F0B1F8002000F0AEF83D
:102BF000102000F0ABF89DF8071040F22E00C2F252
:102C0000000000EBC110802100F0B0F8FFE79DF854
:102C1000070001308DF80700DCE702B080BD00003E
:102C200080B588B0069205918DF813008DF81230AA
:102C30009DF81300202805DBFFE79DF813007F288F
:102C400004DBFFE700208DF81F007BE040F2280046
:102C5000C2F2000000889DF81410084480280BDCA4
:102C6000FFE740F22800C2F2000040889DF81510EE
:102C70000844212804DBFFE700208DF81F0061E0F5
:102C800000200390FFE703989DF8151088424BD26F
:102C9000FFE706989DF8131020399DF81520039B37
:102CA00001FB023130F81100029000200190FFE793
:102CB00001989DF81410884231D2FFE702980199DB
:102CC00088400004002811D5FFE740F22801C2F235
:102CD00000010888019A10444988039A11449DF81C
:102CE0001220C0B2C9B2FFF759FE13E040F228012A
:102CF000C2F200010888019A10444988039A1144DD
:102D00009DF81220B2FA82F25209C0B2C9B2FFF79E
:102D100045FEFFE7FFE7019801300190C8E7FFE7B4
:102D2000039801300390AEE79DF8142040F228018B
:102D3000C2F200010888104408809DF813008DF845
:102D40001F00FFE79DF81F0008B080BD80B582B06E
:102D50008DF80700694664200860782000210DF195
:102D60000702012300F048F802B080BD80B584B0AE
:102D70000390ADF80A10039ABDF80A306946642042
:102D800008607820402100F037F804B080BD0000D2
:102D900080B586B00492039102908DF80730FFE76A
:102DA00002980078B0B1FFE7029800789DF80730EC
:102DB0000399049AFFF734FF02990978884205D0F5
:102DC000FFE7029800788DF8170008E002980130BC
:102DD0000290E5E7029800788DF81700FFE79DF86C
:102DE000170006B080BD000080B582B00190019848
:102DF000FEF754F902B080BD80B584B0DDF818C08C
:102E0000ADF80E008DF80D100292ADF80630FFE718
:102E100045F20040C4F2000040F20161FEF7A6FE58
:102E200008B1FFE7F4E745F20040C4F20000FEF706
:102E3000F3FEFFE745F20040C4F200004FF4A0614A
:102E4000FEF794FE08B9FFE7F4E7BDF80E1045F26F
:102E50000040C4F200006FF00102FEF7A5FEFFE79C
:102E600045F20040C4F2000040F20151FEF77EFE40
:102E700008B9FFE7F4E745F20040C4F2000040F271
:102E80000151FEF753FEFFE745F20040C4F2000097
:102E900040F20751FEF76AFE012801D0FFE7F3E791
:102EA0009DF80D1045F20040C4F20000FEF72AFE26
:102EB000FFE745F20040C4F2000040F20251FEF785
:102EC00055FE08B9FFE7F4E7FFE7BDF80600411E2D
:102ED000ADF80610C0B1FFE70298017845F2004056
:102EE000C4F20000FEF70EFE029801300290FFE7E8
:102EF00045F20040C4F2000040F20251FEF736FEF7
:102F000008B9FFE7F4E7E0E745F20040C4F200004B
:102F1000FEF78CFEFFE745F20040C4F200000068B7
:102F20008005002801D5FFE7F5E704B080BD00006B
:102F300080B54FF4C060FFF739F840F20020C0F2CE
:102F400030000121FEF768FC80BD000084B0002045
:102F50000390029041F20001C4F20201086840F4BB
:102F600080300860FFE703980130039041F20000D1
:102F7000C4F20200006800F400300290FFE70299FA
:102F80000020019041B9FFE703984FF6FF71401A06
:102F900018BF01200190FFE70198C0070028E2D187
:102FA000FFE741F20000C4F202000068800300283D
:102FB00002D4FFE7FFE7FEE741F20401C4F2020199
:102FC00000910868086008680860086840F480603C
:102FD0000860086820F440300860086840F48030D9
:102FE000086008684FF6FF72CFF2C37210400860A5
:102FF000086840F4E010086041F20001C4F20201E8
:10300000086840F080700860FFE741F20000C4F2F9
:10301000020000688001002801D4FFE7F5E741F2D3
:103020000401C4F20201086820F003000860086887
:1030300040F002000860FFE741F20400C4F2020021
:1030400000680007002801D4FFE7F5E704B07047E7
:1030500080B5FFF77BFF80BD80B540F21000C2F263
:103060000000006844F6D351C1F26201A0FB0110D8
:103070008009FDF75BFC10B1FFE7FFE7FEE74FF0CB
:10308000FF300021FDF7B8FC80BD000080B586B0A0
:103090004FF4E060FEF78AFF4FF08040019000F0AF
:1030A0001FF802A8009000F075F9009901984FF4FC
:1030B000E672ADF808200022ADF80A20ADF80C2029
:1030C00001230493ADF8142000F0ACF801984FF4FC
:1030D000807100F091F8019800F09AF806B080BD78
:1030E00080B58AB0099009980890B0F1804F41D01E
:1030F000FFE7089840F20041C4F20001884242D044
:10310000FFE7089840F60001C4F20001884243D06E
:10311000FFE7089840F60041C4F20001884244D01D
:10312000FFE7089841F20001C4F20001884245D04F
:10313000FFE7089841F20041C4F20001884246D0FE
:10314000FFE7089842F60041C4F20101884208D026
:10315000FFE7089843F20041C4F2010188423FD0E2
:1031600047E040F20B300790FEF748FF0798FEF764
:1031700031FF3FE04FF480600690FEF73FFF069876
:10318000FEF728FF36E040F201400590FEF736FFDB
:103190000598FEF71FFF2DE040F202400490FEF775
:1031A0002DFF0498FEF716FF24E040F20340039041
:1031B000FEF724FF0398FEF70DFF1BE040F20440EA
:1031C0000290FEF71BFF0298FEF704FF12E040F2A8
:1031D00005400190FEF712FF0198FEF7FBFE09E0A3
:1031E00040F20D300090FEF709FF0098FEF7F2FE66
:1031F00000E0FFE70AB080BD82B00190ADF8021098
:10320000BDF802200199C8681043C86002B0704739
:1032100081B000900099086840F00100086001B09A
:103220007047000082B001900091009800880199D9
:103230008862019842F60041C4F20101884255D0EB
:10324000FFE70198B0F1804F50D0FFE7019840F2BE
:103250000041C4F20001884248D0FFE7019840F6DF
:103260000001C4F20001884240D0FFE7019840F617
:103270000041C4F20001884238D0FFE7019843F2D0
:103280000041C4F20101884230D0FFE7019844F6C2
:103290000041C4F20101884228D0FFE7019845F2BD
:1032A0000001C4F20101884220D0FFE7019845F2F5
:1032B0000041C4F20101884218D0FFE7019841F6AD
:1032C0000001C4F20001884210D0FFE7019841F6E6
:1032D0000041C4F20001884208D0FFE7019842F2A1
:1032E0000001C4F20001884216D1FFE70199086885
:1032F00020F0700008600098408800F0600201999A
:103300000868104308600098808800F01002019956
:10331000086810430860FFE7009880680199C86258
:10332000019841F20001C4F20001884216D0FFE783
:10333000019841F20041C4F2000188420ED0FFE73B
:103340000199086820F4407008600098808900F4B2
:1033500040720199086810430860FFE7019842F63F
:103360000041C4F20101884208D0FFE7019843F20E
:103370000041C4F20101884205D1FFE70098807B3B
:1033800001990863FFE70199486940F0010048612D
:1033900002B0704781B00090009900200880009929
:1033A000488000998880009A4FF6FF7191600099DB
:1033B00088810099887301B07047000080B586B09D
:1033C00040F20260FEF7F2FD40F20E60FEF7EEFD05
:1033D00040F60000C4F2010001901821032202927D
:1033E0004FF40073FEF764F90198029A04210491E6
:1033F0004FF48063FEF75CF943F60000C4F201006D
:10340000059000F097F805984FF4E13100F022F8AC
:1034100005980021039100F089F90399059800F0BF
:103420005FF90399059800F035F90399059800F0C4
:103430001BF90399059800F001F90499059800F02B
:1034400039F90598082100F05BF9059800F0CEF8ED
:1034500006B080BD80B588B0079006910020059029
:103460000490039002900798019044F20041C4F246
:103470000001884225D0FFE7019844F60001C4F21C
:103480000001884222D0FFE7019844F60041C4F2CF
:10349000000188421FD0FFE7019845F20001C4F205
:1034A000000188421CD0FFE7019843F60001C4F2F6
:1034B0000101884219D1FFE70320FEF7A9FC05901E
:1034C00014E00220FEF7A4FC05900FE00220FEF7B6
:1034D0009FFC05900AE00220FEF79AFC059005E0AB
:1034E0000220FEF795FC059000E0FFE7059806999D
:1034F00000EB5100B0FBF1F0029002984FF6F07132
:1035000008400490029800F00F000390BDF81000EE
:10351000BDF80C1008430799886008B080BD000012
:1035200082B00190009100986FF35F20019948608C
:1035300002B0704780B588B007900798069044F2B3
:103540000041C4F20001884229D0FFE7069844F602
:103550000001C4F2000188422AD0FFE7069844F631
:103560000041C4F2000188422BD0FFE7069845F2E3
:103570000001C4F2000188422CD0FFE7069843F610
:103580000001C4F2010188422DD1FFE740F20E3064
:103590000590FEF733FD0598FEF71CFD24E040F290
:1035A00011400490FEF72AFD0498FEF713FD1BE07E
:1035B00040F212400390FEF721FD0398FEF70AFD4A
:1035C00012E040F213400290FEF718FD0298FEF759
:1035D00001FD09E040F214400190FEF70FFD019853
:1035E000FEF7F8FC00E0FFE708B080BD81B0009076
:1035F0000099C86840F40050C86001B070470000EE
:1036000083B001908DF8031001989DF8031089098B
:1036100040589DF8031001F01F01C840C00720B1B9
:10362000FFE701208DF80B0003E000208DF80B0070
:10363000FFE79DF80B0003B07047000083B00290D5
:10364000019100200090029840690090009820F4B9
:10365000007000900199009808430090009802992A
:10366000486103B07047000083B0029001910020D0
:103670000090029840690090009820F480700090BB
:10368000019900980843009000980299486103B09E
:103690007047000082B0019000910199C86820F441
:1036A000C060C860009A0199C8681043C86002B041
:1036B0007047000083B002900191002000900298B2
:1036C000C0680090009820F00400009001990098D4
:1036D0000843009000980299C86003B0704700004A
:1036E00082B0019000910199086920F4405008616E
:1036F000009A019908691043086102B07047000000
:1037000083B002900191002000900298C068009060
:10371000009820F00800009001990098084300905C
:1037200000980299C86003B07047000082B0019011
:1037300000910199C86820F48050C860009A0199EE
:10374000C8681043C86002B0704700000FB4054B52
:1037500010B503A9044A029800F02AFC10BC5DF8D9
:1037600014FB0000DD140008000000200FB4084B1B
:1037700010B504A902AA039800F01AFC044602A995
:10378000002000F0ACFF204610BC5DF814FB0000E8
:10379000DF460008490050EAC12018BF04204A0D46
:1037A00018BF40F0010040F2FF72B2EB515F08BF5A
:1037B00040F00200012808BF052070472DE9F74FAF
:1037C000144694B00021C4E902111599079121F023
:1037D0000045C9498D4206DC1599C4E9000117B0BE
:1037E0000020BDE8F08FC549DFF814A3A9423CDDF5
:1037F0000799C44E0029C44FC44A1599534619DD90
:10380000FCF74FFD554506D0C14AC24BFCF749FDB8
:10381000C4E900010AE04FF0D352BE4BFCF741FD72
:1038200032463B46FCF73DFDC4E9000117B00120DC
:10383000BDE8F08FFCF794FC554506D0B44AB54B73
:10384000FCF78EFCC4E900010AE04FF0D352B14B03
:10385000FCF786FC32463B46FCF782FCC4E90001DB
:1038600017B04FF0FF30BDE8F08FAB49A942159972
:1038700078DB21F0004183468846A84AA84BFCF734
:1038800016FD0022A74BFCF76BFCFCF745FE0990E8
:10389000FCF724FE06460F469C4A5346FCF707FDFC
:1038A00043465A46FCF700FD80468A46984A994BA3
:1038B00030463946FCF7FBFC2A0D01250B924246A7
:1038C0005346FCF7F1FC032DC4E9000139D00B98F5
:1038D000C1F30A51401A05EB45111139814230DA22
:1038E0009148C346784400EB0510CDF80CA00C902D
:1038F000D0E9002330463946FCF7D9FC02460B4696
:103900000491069058460399FCF7CBFC80468A4602
:1039100002460B4658460399FCF7C3FC049B069AE3
:10392000FCF7BFFC83460C9803913946D0E902238B
:103930003046FCF7BCFC5A46039BFCF7B2FC6D1CFE
:10394000BDE707980028A2BF099817B0BDE8F08F1F
:10395000616881F000416160099817B04042BDE89C
:10396000F08FFFE784461598C1F31301C0F30A50A6
:10397000A0F2F5304FEA601800F01F06C6F12000F3
:10398000139000200690079041F4801E05206D469C
:1039900076B1664A08EB00017A4452F8213002EB16
:1039A0008101B3404A68139922FA01F1194305E0F5
:1039B0005F4908EB0002794451F82210A1FB0E2761
:1039C000A1FB0C131A449A4234BF0123002303EBDA
:1039D000070A05EB8003D3E901B70F448F4234BFD8
:1039E0000121002193448B4411B1934502D903E096
:1039F000934501D2012100E00021C3E901B7514400
:103A000045F82010011EA0F10100C1DC0298059FBD
:103A100000F10050800F12900298DDE903568000FB
:103A2000FCF75CFD834628460D91FCF768FD6FF0BE
:103A30001D02FCF755FFCDE90E013046FCF75FFD96
:103A40006FF03D02FCF74CFF80468A463846FCF793
:103A500056FD6FF05D02FCF743FF074642465346B2
:103A60001191FCF77DFBDDE90E23FCF779FB5A464B
:103A70000D9BFCF775FB00250E465A4628460D9B0C
:103A8000FCF70FFCDDE90E23FCF70BFC4246534626
:103A9000FCF707FC3A46119BFCF706FCDFF898A000
:103AA000244A5346FCF703FC07468846234A244B26
:103AB00031462846FCF7FBFB3A464346FCF750FBF1
:103AC000074688464FF0A842534631462846FCF741
:103AD000EEFB3A464346FCF743FB159A12F0004FC3
:103AE00004D0129A81F0004152421292C4E90001BE
:103AF000129817B0BDE8F08FFB21E93F7CD9024056
:103B0000FB21F93F7370032E8A19A33B0000405438
:103B10003163621A61B4D03DFB21394183C8C96D5C
:103B2000305FE43F0000E03FA814000024140000D0
:103B300006140000182D4454FB21F93D3326A6112C
:103B4000460B113C2DE9FF4D21F0004807460C467D
:103B5000B8F1795F08DAFCF7DFFC002801BF00202C
:103B6000324904B0BDE8F08D3A4623461046194666
:103B7000FCF79DFB054602462D480E460B460621E6
:103B8000784400F05DF82A463346FCF790FBDDE907
:103B9000022382468B4638462146FCF788FB0446C2
:103BA0000F4652465B4628463146FCF780FB2246CC
:103BB0003B46FCF776FB07468A464FF0FF32284625
:103BC0003146FCF78DFE1B4A90450ADA3A465346C9
:103BD000FCF767FB04B00022BDE8F04D134BFCF787
:103BE00063BB154A4245A8BFA8F500154FF0000475
:103BF000B8BF124D22462B46FCF753FB06468846BB
:103C000022462B4600200949FCF74BFB04460D4693
:103C10003A46534630464146FCF743FB04B0224641
:103C20002B46BDE8F04DFCF73FBB00000000F03F25
:103C3000D41100003333D33F0000E93F0000D23FEE
:103C40002DE9F0414F1E00EBC7010446D1E9000108
:103C500015461E4637F006020DD02A463346FCF7BD
:103C600026FB7F1E04EBC703D3E90023FCF778FA99
:103C700037F00602F1D1022F25D0042F13D0062FE2
:103C800018BFBDE8F0812A463346FCF710FBD4E9A3
:103C90000A23FCF765FA2A463346FCF708FBD4E909
:103CA0000823FCF75DFA2A463346FCF700FBD4E90B
:103CB0000623FCF755FA2A463346FCF7F8FAD4E90E
:103CC0000423FCF74DFA2A463346FCF7F0FAD4E910
:103CD0000223FCF745FA2A463346FCF7E8FAD4E912
:103CE0000023BDE8F041FCF73BBA00002DE9FF4D91
:103CF000054621F0004084B00C46B0F1795F0BDA44
:103D00002846FFF747FD042808BF00F071F8284651
:103D100008B02146BDE8F08D2A460B461046FCF758
:103D2000C6FA06460F462A462346FCF7C0FA8046E6
:103D300026488A4632463B4605217844FFF780FFF5
:103D400083461098029160B3214A224B4046514667
:103D5000FCF7ADFACDE900015A4640465146029BB8
:103D6000FCF7A5FA82468846DDE906014FF0FF32EE
:103D7000FCF7B6FD52464346FCF793FA32463B4603
:103D8000FCF795FADDE90623FCF78BFADDE9002361
:103D9000FCF787FA08B02A462346BDE8F04DFCF749
:103DA00083BA0B465A4630463946FCF780FA084A31
:103DB000084BFCF7D5F942465346FCF778FA08B0B1
:103DC0002A462346BDE8F04DFCF7CAB9221100008F
:103DD000495555555555C5BF0122FCF781BDFCF726
:103DE000BFB90022134610461146FCF7D2BA0000B4
:103DF000024A00201107FCF773BD000001FDFFFF20
:103E000002E008C8121F08C1002AFAD170477047A3
:103E1000002001E001C1121F002AFBD17047000001
:103E20000149086070470000040000202DE9FF5F91
:103E300082B00021DDE90430020DDDF840B003431B
:103E400018D044F61050A2F2FF32424315141198D4
:103E500001281FD0A5EB0B00401C5FEA000A4FF0C1
:103E600000064E4FDFF83891B046504615D5CAF1DE
:103E7000000413E0119801244AA3012801D16FEA3C
:103E80000B010298119AC0E90031C0E9024206B064
:103E9000BDE8F09FCBF10000DFE704460021404A77
:103EA000491842EB0450CDE9001012E0E00707D0BA
:103EB00032463B4640464946FCF7F9F9804689467A
:103EC00032463B4610461946FCF7F1F906460F46C6
:103ED0006410002CEAD1DDE90401DDE90023BAF128
:103EE000000F06DAFCF7E3F942464B46FCF7DFF930
:103EF00005E0FCF74EFA42464B46FCF74AFA044608
:103F00000E460022284BFCF7C1FC03D84FF0FF30CF
:103F1000014607E00022254B20463146FCF720F9F8
:103F2000FCF784FC102409E0002C0ADB0A220023A1
:103F3000FCF727FB039B30321A55641E50EA01023E
:103F4000F2D1641C039AC4F111031444119A012A9A
:103F500003D0012208430DD10AE0084304D0002019
:103F60004FF0110B119072E7A3EB0B056D1E0DE0E6
:103F70005B4504DD4FF0000205F1010504E003DAC2
:103F80004FF00002A5F10105002AECD0029811992A
:103F9000C0E90231C0E9004579E7000000001440A3
:103FA0000000F03F300000000000F0430000E03F60
:103FB0002DE9FF4F95B09B468946064600250FE246
:103FC000252877D100242746F84A0121059400E0EE
:103FD000044316F8013F203B01FA03F01042F7D1E9
:103FE00030782A2811D06FF02F033078A0F13002FA
:103FF000092A16D8059A44F0020402EB820203EB68
:1040000042021044761C0590EFE759F8042B059204
:10401000002A03DA504244F40054059044F00204AC
:10402000761C30782E2816D116F8010F44F00404BF
:104030002A280DD06FF02F023078A0F13003092B21
:1040400009D807EB870302EB4303C718761CF3E795
:1040500059F8047B761C30786C280FD006DC4C288D
:1040600017D068280DD06A2814D104E0742810D025
:104070007A280FD10DE044F400140AE044F48014CF
:1040800001E044F440147278824202D104F58014B5
:10409000761C761C307866280BD013DC582877D035
:1040A00009DC002875D04528F6D04628F4D04728EA
:1040B0001AD19DE118E0632835D0642879D06528AD
:1040C00012D195E1702873D008DC6728F1D06928F7
:1040D0006FD06E280DD06F2806D1B5E073282CD094
:1040E000752875D0782874D05A46179990476D1C5A
:1040F00075E1C4F30250022809D003280DD0D9F885
:10410000001004280DD00D6009F1040967E1D9F809
:104110000010EA17C1E90052F6E7D9F800100D8047
:10412000F2E70D70F0E719F8041B8DF8001000207D
:104130008DF80100EA46012003E059F804AB4FF086
:10414000FF3061074FF0000102D40DE008F10101DA
:104150008846B9420FDA8045F8DB1AF808100029C2
:10416000F4D108E008F1010188468142FADB1AF82F
:1041700008100029F6D105985B46A0EB08072146F8
:104180003846179A00F094FA284400EB080507E037
:104190004DE029E10DE01AF8010B5A4617999047B6
:1041A000B8F10108F7D25B4621463846179A13E169
:1041B00042E00A220092C4F302524FF0000A022A9F
:1041C00008D059F804CB032A4FEAEC710AD00DE06D
:1041D00029E02AE009F1070121F00702F2E802C113
:1041E000914609E00FFA8CFC4FEAEC71042A03D1E6
:1041F0004FFA8CFC4FEAEC71002907DA0A460021DD
:10420000DCF1000C61EB02012D2202E0220504D555
:104210002B228DF80420012203E0E20701D02022A6
:10422000F7E7904659E00A2102E010220DE0102144
:104230004FF0000A00910BE010224FF0000A44F00A
:1042400004040827009203E008224FF0000A0092BD
:10425000C4F30252022A05D059F804CB0021032AE4
:1042600008D009E009F1070121F00702F2E802C1D4
:10427000914605E01FFA8CFC042A01D10CF0FF0CDA
:104280004FF00008220728D5702806D0009B83F045
:10429000100353EA0A0305D00EE040228DF80420F3
:1042A000012208E05CEA010206D030228DF80420E9
:1042B0008DF8050002229046009B83F0080353EA24
:1042C0000A030AD15CEA010201D1620705D5302256
:1042D0008DF804204FF001087F1E582804D034A028
:1042E00003900EA802900DE036A0F9E75346604611
:1042F000009AFCF746F984460398825C0298401EB7
:10430000029002705CEA0100F0D1029806A9081A36
:1043100000F1200A600702D524F4803400E0012770
:10432000574502DDA7EB0A0000E0002000EB0A0180
:10433000009005984144401A0590E00306D45B467E
:104340002146179A059800F0B3F90544002706E0C6
:1043500001A85A46C05D179990476D1C7F1C4745C0
:10436000F6DBE0030CD55B462146179A059800F072
:104370009FF9054404E030205A46179990476D1C78
:104380000099481E00900029F5DC08E00298029987
:104390005A460078491C0291179990476D1CBAF152
:1043A0000001AAF1010AF1DC65E100000928010021
:1043B000303132333435363738396162636465669B
:1043C000000000003031323334353637383941425D
:1043D000434445460000000000F058F90544761CAF
:1043E000307800287FF4ECAD19B02846BDE8F08F96
:1043F000620700D4062709F1070222F0070CFCE847
:104400000223E14603F000485FEA080C02D00FF2F5
:10441000702C0DE05FEA045C02D50FF2682C07E017
:104420005FEAC47C02D00FF2602C01E0AFF2700CA6
:104430004FF0FF3823F00043CDF850C065280CD072
:1044400006DC452809D046281DD047283DD13DE04F
:10445000662818D067287ED138E00021112F01DBB3
:10446000112000E0781CCDE9000106A90EA8FFF795
:10447000DDFCDDE90F010E9A03910021009207F1A6
:10448000010A04914DE04FF000400097CDE9011082
:1044900006A90EA8FFF7CAFCDDE90F0203920E9BE6
:1044A00011990022DDF80CA00093049211B9791C37
:1044B00000EB010AB7EB0A0004D4C0F1FF3007F1AA
:1044C000010A0490AAEB0700019044E0012F00DAF2
:1044D00001270021112F01DD112000E03846CDE930
:1044E000000106A90EA8FFF7A1FCDDE90F010E9A55
:1044F0000391002104910092BA4621070CD403993C
:10450000514500DA8A46BAF1010F05DD009AAAF199
:104510000101515C302908D0B84202DA10F1040FD1
:1045200006DA0121CDE9011015E0AAF10101E9E760
:10453000002805DC049901440491AAEB000102E083
:10454000411C514500DD8A460499401A401C0190E7
:104550004FF000400290200704D40198504501DB41
:10456000CDF8048000208DF84F0002980DF14F0720
:10457000B0F1004F25D02B200E9002984FF002088A
:1045800000280CDA404202902D200E9007E00A210C
:104590000298FBF7E0FF3031029007F8011DB8F1F7
:1045A0000001A8F10108F2DC02980028EFD1791E81
:1045B0000E980870307800F0200040F0450007F8B1
:1045C000020D12A8C01B00F107081498007800B172
:1045D000012000EB0A01019801EBE07105984144CC
:1045E000401A401E0590E00306D45B462146179A08
:1045F000059800F05DF805441498007818B15A4603
:10460000179990476D1CE00324D55B462146179A05
:10461000059800F04DF805441CE00498002807DBDD
:10462000DDE90301884203DD0098405C179901E051
:10463000179930205A469047049805F10105401C0F
:1046400004900198401E019004D12E205A461799DB
:1046500090476D1CBAF10001AAF1010ADDDC05E00A
:1046600017F8010B5A46179990476D1CB8F10001D5
:10467000A8F10108F4DC5B462146179A0598ABE6E1
:104680002D0000002B000000200000002DE9F0416B
:10469000044600251E461746880404D405E0394622
:1046A0002020B0476D1C641EF9D52846BDE8F08176
:1046B0002DE9F041044600251E469046C80301D569
:1046C000302700E02027880404D505E0414638461D
:1046D000B0476D1C641EF9D52846BDE8F0810A6814
:1046E000531C0B60107070472DE9F84F04460D46BF
:1046F00021F0004000917349814211DC72498842E7
:1047000001DC06D12CB120462946BDE8F84FFFF761
:1047100063BB6E48002DCCBF6D496E49BDE8F88F74
:104720006D49814211DD6D498142D8BF4FF0FF369E
:104730006DDD20462946FFF72DF8042808BFFFF756
:1047400057FB20462946BDE8F88F6549654F25F09F
:104750000045814233DD6449814219DD002632463D
:104760004FF0804320462946FBF7FAFC80468A46F4
:10477000012220462946FCF7B3F800223B46FBF70E
:1047800090FD42465346FBF704FE04460D463EE0CC
:1047900001260022BA463B4620462946FBF7E0FCAC
:1047A00080460F460022534620462946FBF779FDF6
:1047B00042463B46FBF7EDFD04460D4627E04B49DC
:1047C00081421BDDDFF828A1022600225346204645
:1047D0002946FBF76CFD00223B46FBF7C1FC8046F7
:1047E0000F460022534620462946FBF75AFD424613
:1047F0003B46FBF7CEFD04460D4608E00326224665
:104800002B4600203B49FBF7C4FD04460D462246DB
:104810002B4610461946FBF74AFD8B468246024658
:104820000B46FBF744FD07460246334888460B46D5
:1048300006217844FFF704FA52465B46FBF737FD42
:1048400082462E488B463A46434605217844FFF778
:10485000F7F93A464346FBF72AFD02460B46002E7F
:10486000504659460CDAFBF77BFC22462B46FBF7F9
:104870001EFD01B022462B46BDE8F04FFBF714BDEC
:10488000FBF76EFC22462B46FBF711FD1C4A7A44CF
:1048900002EBC603D3E90023FBF703FD22462B46B8
:1048A000FBF7FFFC174A7A4402EBC603D3E9002367
:1048B000FBF7FAFC009A002AB8BF81F00041BDE87E
:1048C000F88F0000000010440000F07F182D4454C1
:1048D000FB21F93FFB21F9BF0000DC3F0000203E37
:1048E0000000F33F0000F03F0000E63F008003407F
:1048F0000000F83F0000F0BFF2040000B004000028
:104900004E040000160400002DE9F04D9446CCF151
:10491000000423F000464CEA0404594F46EAD474DC
:104920009A46884621F00042BC4206D8454240EAF9
:10493000050442EAD474BC4204D9BDE8F04D624695
:10494000FFF74DBAAAF14055A5F17F6555EA0C0471
:104950000BD0022404EAAA744A4DDFF82CE144EAA1
:10496000D87452EA000B04D00CE0BDE8F04DFFF71C
:10497000BBBE002C14BF012CBDE8F08D022C30D042
:10498000032C32D056EA0C0B0AD0BE4220D1BA42D8
:1049900009D126F0804622F080423346114617E0C6
:1049A00000291ADB25E0DFF8E4B0FB44002C04BF4B
:1049B000DBE90001BDE8F08D012C02BFDBE900015D
:1049C00081F00041BDE8F08D022C0AD0032C0CD000
:1049D000BA4212D1B8F1000F0BDA2A482C49BDE8CF
:1049E000F08D28462B49BDE8F08D28467146BDE87C
:1049F000F08D24482849BDE8F08D921B12153C2A01
:104A0000C4BF204F244E10DCBAF1000FBEBF12F11C
:104A10003C0F00273E4608DB6246FBF7BAFC21F05C
:104A20000041FFF761FE07460E4694B1012C08BF16
:104A300086F000460DD0194A194B022C38463146F3
:104A400015D0FBF72EFC2A46BDE8F04D114BFBF7C5
:104A500028BC0022134638463146FBF7FFFE04BF50
:104A60000220FFF7DDF938463146BDE8F08DFBF74F
:104A700018FC2A46BDE8F04D064BFBF715BC0000BC
:104A80000000F07F182D4454FB2109C0DA03000018
:104A9000FB21F9BFFB210940FB21F93F075C1433DF
:104AA00026A6A13C00B5244B21F0004287B09A42D3
:104AB000DCBF0022134629DD204B9A4208D140B9C1
:104AC0004FF00100FFF7ACF9FFF78BF907B000BD1D
:104AD00003DBFFF781F907B000BD02AAFEF76EFE07
:104AE00010F0030104BF0DF1080C9CE80F000DD07D
:104AF000012001290ED0022914D00DF1080C0090DC
:104B00009CE80F00FFF7F2F807B000BDFFF71AF8B6
:104B100007B000BD0DF1080C00909CE80F00FFF7F6
:104B2000E5F805E00DF1080C9CE80F00FFF70AF826
:104B300007B081F0004100BDFB21E93F0000F07F9C
:104B40002DE9F04D07460E46FBF72CFE04460D46B8
:104B50003A463346FBF7A8FBDFF86CA0DFF86CB0F1
:104B60001B4B0746884616F0004F4FF000020AD054
:104B7000FBF774FE0AD900225B4638464146FBF734
:104B800085FE1BD212E0FBF769FE08D200225346D5
:104B900020462946FBF785FB04460D460EE0002221
:104BA0005B4638464146FBF771FE07D80022534664
:104BB00020462946FBF7D4FA04460D4631462046E6
:104BC00065F31E01BDE8F08D0000F03F0000E03FFE
:104BD0000000E0BF00B5254B21F0004287B09A42AB
:104BE00003DC0022134600922BE0214B9A4208D1AD
:104BF00040B94FF00100FFF713F9FFF7F2F807B0E3
:104C000000BD03DBFFF7E8F807B000BD02AAFEF71E
:104C1000D5FD10F003014FF001000DD0012914D093
:104C200002291AD00DF1080C9CE80F00FEF78AFF4C
:104C300007B081F0004100BD0DF1080C00909CE828
:104C40000F00FFF753F807B000BD0DF1080C9CE80A
:104C50000F00FEF777FF07B000BD0DF1080C0090C4
:104C60009CE80F00FFF742F8E2E70000FB21E93F74
:104C70000000F07F2DE9F04106460F46FBF740FDAE
:104C8000041E0D4618BF0120284320F00040C0F14B
:104C90007F6000F1E040C00F0ED0301C18BF012033
:104CA000384320F00040C0F17F6000F1E040C00FC9
:104CB00004BF0120FFF7B4F820462946BDE8F08183
:104CC0004FBB610567ACDD3F182D4454FB21E93F24
:104CD0009BF681D20B73EF3F182D4454FB21F93F13
:104CE000E2652F227F2B7A3C075C143326A6813C99
:104CF000BDCBF07A8807703C075C143326A6913C44
:104D0000C4EB98999999C9BF711623FEC671BCBFAF
:104D10006D9A74AFF2B0B3BF9AFDDE522DDEADBF17
:104D20002F6C6A2C44B4A2BF0D5555555555D53F2F
:104D3000FF8300922449C23F6E204CC5CD45B73F4A
:104D4000513DD0A0660DB13FEB0D76244B7BA93FC2
:104D500011DA22E33AAD903F4C5555555555A53FD4
:104D60007751C1166CC156BF9015CB19A001FA3E00
:104D7000AD529C804F7E92BEC4B1B4BD9EEE213E2A
:104D8000D43888BEE9FAA8BD000000000000000089
:104D900000004054FB21F93F3163621A61B4D03DF9
:104DA0000000601A61B4D03D7370032E8A19A33BD2
:104DB0000000002E8A19A33BC14920259A837B3924
:104DC00000000000000000006E83F9A22915444E87
:104DD000D15727FCC0DD34F5999562DB4190433C07
:104DE000AB6351FE61C5BBDE3A6E24B7E0D24D42E3
:104DF000EA2E49061C92D1091CEB1DFE3EA729B1E3
:104E0000F53582E88444BB2E26709CE9417E5FB470
:104E100039D69139F43953838B5F849C3B28F9BD93
:104E2000FF97F81F0F9805DE8B112FEF1F6D0A5AA1
:104E3000CF7E366DB709CB27663F464F2DEA5F9E82
:104E4000C7BA27757BF1E5EBF739073DEA92528A3D
:104E5000B15FFB6B085D8D1F4630035600000000FC
:104E6000A6F810111111813FD561C119A0012ABF07
:104E70007DFEB157E31DC73EEB9C2B8AE6E55ABE8B
:104E80007CD5CF5A3AD9E53D01010101010101016B
:104E90000101010101010101010101010000000006
:104EA00001010101010101010101010100000000F6
:104EB00001010101010101010000000000000000EA
:104EC00001010101010101010000000000000000DA
:104ED00001010101010101010000000000000000CA
:104EE00001010101010101010000000000000000BA
:104EF00001010101010101010000000000000000AA
:104F00000101010101010101000000000000000099
:104F10000101010101010101000000000000000089
:104F20000101010101010101000000000000000079
:104F30000101010101010101000000000000000069
:104F40000101010101010101000000000000000059
:104F50000101010101010101000000000000000049
:104F60000101010101010101000000000000000039
:104F70000101010101010101000000000000000029
:104F8000000000000101010100000000000000001D
:104F9000000000000000000000000000010101010D
:104FA00000000000000000000000000001010101FD
:104FB00000000000000000000101010101010101E9
:104FC00000000000000000000101010101010101D9
:104FD00000000000000000000101010101010101C9
:104FE00000000000000000000101010101010101B9
:104FF00000000000000000000101010101010101A9
:105000000000000000000000010101010101010198
:105010000000000000000000010101010101010188
:105020000000000000000000010101010101010178
:105030000000000000000000010101010101010168
:105040000000000000000000010101010101010158
:105050000000000000000000010101010101010148
:105060000000000000000000010101010101010138
:105070000000000000000000010101010101010128
:10508000010101010000000000000000000000001C
:105090000000000000000000000000000000000010
:1050A0000000000000000000000000000000000000
:1050B000000000000000000000000000E003E0032A
:1050C000E003E003E003E003E003E003C003C00308
:1050D000C001C001C001C001C0010000000000000B
:1050E000E003E003E0030000000000000000000017
:1050F0003C1E3C1E3C1E3C1E3C1E3C1E3C1E00003A
:10510000000000000000000000000000000000009F
:10511000000000000000000000000000000000008F
:1051200000000000CE01CE03DE039E039C039C071B
:10513000FF3FFF7F3807380F780F780F780EFFFF9B
:10514000FFFFF01EF01CE01CE03CE03DE0390000F9
:105150000000000000000000FC03FE0FEE1FE01E38
:10516000E01EE01EE01EE01FE00FE007F003FC0180
:10517000FE01FE01FE01FE01FE01FE01FE3DFC3FBF
:10518000F00FE001E001000000000000033E07F71F
:105190008FE78EE79EE3BCE3B8E7F8E7F0F7E03F80
:1051A000C001FF03FF07F307F30FF31EF33CF338CF
:1051B000F3787FF03FE000000000000000000000F6
:1051C000E007F80F780F781F781F781F780FF00F1F
:1051D000E00F801FC37FC3FBE7F3F7F1F7F0FFF0A9
:1051E0007FF03EF87F7CFF3FEF1F000000000000D3
:1051F00000000000E003E003E003E003E003C0037D
:10520000C0010000000000000000000000000000DD
:10521000000000000000000000000000000000008E
:1052200000000000000000003F007C00F001E001F1
:10523000C003C00780078007800F000F000F000F1A
:10524000000F000F000F800F80078007C007C0030A
:10525000E001F0017C003F000F000000007E001F15
:10526000C007C003E001F001F000F000F800780092
:1052700078007800780078007800F800F000F000FE
:10528000F001E001C003C007001F007E00780000AD
:10529000E003C003C001CE39FF3F7F3F200370030E
:1052A000F807780F3C1F38060000000000000000DF
:1052B00000000000000000000000000000000000EE
:1052C00000000000000000000000000000000000DE
:1052D000C001C001C001C001C001C001C001FFFF89
:1052E000FFFFC001C001C001C001C001C00100003A
:1052F00000000000000000000000000000000000AE
:10530000000000000000000000000000000000009D
:1053100000000000000000000000E003E003E003E4
:10532000E003E001E001E001C001800300000000B3
:10533000000000000000000000000000000000006D
:105340000000FE3FFE3F00000000000000000000E3
:10535000000000000000000000000000000000004D
:10536000000000000000000000000000000000003D
:10537000000000000000000000000000000000002D
:105380000000E003E003E003E00300000000000091
:10539000000000000F000F001E001E003C003C003B
:1053A00078007800F000F000E001E001C003C003E5
:1053B00080078007000F000F001E001E003C003C0D
:1053C0000078007800F00000F007F80F7C1F3E3EE8
:1053D0001E3C1F7C1F7C0F780F780F780F780F789A
:1053E0000F780F781F7C1F7C1E3C3E3E7C1FF80F01
:1053F000F00700000000000000000000F000F007CF
:10540000F03FF03FF001F001F001F001F001F00198
:10541000F001F001F001F001F001F001F001F00104
:10542000F001FF3FFF3F000000000000000000000F
:10543000E00FF83F7C3C3C003E003E003E003C005C
:105440003C007C00F800F001E003C0078007000F7B
:10545000001E003E003CFE3FFE3F0000000000003A
:1054600000000000F00FF81F7C1C3E003E003E00D4
:105470003C003C00F800F00FF80F7C003E001E00DE
:105480001E001E001E003E007C1CF81FE01F0000D6
:1054900000000000000000007800F800F800F801AB
:1054A000F803F807F807780F781E781E783C7878AC
:1054B0007878FFFFFFFF78007800780078007800A8
:1054C000780000000000000000000000FC1FFC1F2E
:1054D000FC1F001E001E001E001E001EE01FF81F05
:1054E000FC007C003E003E001E003E003E003C00F2
:1054F0007C1CF81FE01F00000000000000000000FE
:10550000FC01FE078E0F001F001E003E003C003C09
:10551000F83DFC3F3E7F1F7E0F3C0F3C0F3C0F3C95
:105520000F3E1F1E3E1FFC0FF00300000000000096
:1055300000000000FF3FFF3FFF3F0F001E001E0066
:105540003C0038007800F000F000E001E001C0030A
:10555000C0038007800F800F000F001F001F000096
:105560000000000000000000F807FC0F3E1F1E1E98
:105570001E3E1E3E1E1E3C1FF80FF007F80FFC1EBD
:105580003E3E1F3C1F7C0F7C0F7C1F3C3E3FFC1FA0
:10559000F00700000000000000000000F007F80F16
:1055A0007C1E3E3C1E3C1F7C1F7C1F7C1F7C1F3CC6
:1055B0003F3EFF1FEF071F001E001E003E003C0085
:1055C000F838F03FE01F000000000000000000007D
:1055D000000000000000000000000000E003E00305
:1055E000E003E003000000000000000000000000F5
:1055F0000000E003E003E003E0030000000000001F
:10560000000000000000000000000000000000009A
:10561000E003E003E003E0030000000000000000FE
:10562000000000000000E003E003E003E003E0010D
:10563000E001E001C0038003000000000000000062
:105640000000000003000F003F00FC00F003C00F4B
:10565000003F00FE003FC00FF003FC003F000F00C2
:105660000300000000000000000000000000000037
:10567000000000000000000000000000000000002A
:10568000FFFFFFFF000000000000FFFFFFFF000022
:10569000000000000000000000000000000000000A
:1056A00000000000000000000000000000E000F822
:1056B000007E801FE007F8017E001F007E00F801D9
:1056C000E007801F007E00F800E0000000000000FE
:1056D00000000000F01FFC3F3E381F381F381E003E
:1056E0001E003C007800F000E001C003C003C007CA
:1056F000C007000000000000C007C007C00700008E
:105700000000000000000000F803FE0F1E1F0F3E07
:105710007F3CFF78EF79C773C7F38FF38FF38FF375
:105720009FF39FF3FF73FF7BF779003C1C1FFC0F77
:10573000F80300000000000000000000000000006E
:105740000000E003E003F007F007F007780F780FA0
:105750007C0E3C1E3C1E3E3CFE3FFF3F1F780F78F8
:105760000FF007F007F0000000000000000000004C
:10577000000000000000F83FFC3F3E3C1E3C1E3C89
:105780001E3C3E3C7C3CF03FF83F7E3C1F3C1F3CB7
:105790000F3C0F3C1F3CFE3FF83F000000000000A4
:1057A00000000000000000000000FF01FF07871F4D
:1057B000003E003C007C007800780078007800789B
:1057C000007C007C003E003F831FFF07FF010000BC
:1057D0000000000000000000000000000000F07F5A
:1057E000FC7F7E781F781F780F780F780F780F78FE
:1057F0000F780F780F780F781F781E787E78F87FF3
:10580000E07F000000000000000000000000000039
:105810000000FF3FFF3F003E003E003E003E003ED6
:10582000003EFE3FFE3F003E003E003E003E003E8A
:10583000003EFF3FFF3F00000000000000000000AE
:10584000000000000000FF1FFF1F001E001E001EC2
:10585000001E001E001EFF1FFF1F001E001E001E58
:10586000001E001E001E001E001E000000000000A2
:1058700000000000000000000000FE03FF0F871F73
:10588000003E007C007C007800F800F87FF87FF88C
:105890000F780F7C0F7C0F3E8F1FFF0FFE03000061
:1058A00000000000000000000000000000001F7C5D
:1058B0001F7C1F7C1F7C1F7C1F7C1F7C1F7CFF7F2D
:1058C000FF7F1F7C1F7C1F7C1F7C1F7C1F7C1F7C1D
:1058D0001F7C00000000000000000000000000002D
:1058E0000000FF3FFF3FE003E003E003E003E003CD
:1058F000E003E003E003E003E003E003E003E00390
:10590000E003FF3FFF3F0000000000000000000038
:10591000000000000000FC1FFC1F7C007C007C00DD
:105920007C007C007C007C007C007C007C007C0097
:1059300078007800F838F03FC03F00000000000019
:10594000000000000000000000001F3C1E3C3C3C2A
:10595000783CF03CE03DE03FC03F803FC03FE03F4F
:10596000F03DF03C783C7C3C3E3C1F3C0F3C000052
:105970000000000000000000000000000000003EE9
:10598000003E003E003E003E003E003E003E003E27
:10599000003E003E003E003E003E003E003EFF3F17
:1059A000FF3F0000000000000000000000000000B9
:1059B00000001FF81FFC1FFC3FFE3FFE3FFE7FFF65
:1059C00077FF77FFF7F7E7F7E7F3E7F3C7F307F0BA
:1059D00007F007F007F000000000000000000000E2
:1059E0000000000000000F7C0F7C0F7E0F7F0F7FF8
:1059F0008F7F8F7FCF7FEF7BEF79FF79FF78FF7805
:105A00007F783F783F781F781F7800000000000003
:105A100000000000000000000000F007FC1F3E3EF8
:105A20001F7C0F780F780FF80FF80FF80FF80FF8AA
:105A30000FF80F780F781F7C3E3EFC1FF007000028
:105A40000000000000000000000000000000FC3F1B
:105A5000FF3F1F3E0F3E0F3E0F3E0F3E1F3E3F3E9D
:105A6000FC3FF03F003E003E003E003E003E003E58
:105A7000003E0000000000000000000000000000E8
:105A80000000F007FC1F3E3E1F7C0F780F780FF8D8
:105A90000FF80FF80FF80FF80FF80F780F781F7C3A
:105AA0003E3EFC1FF8077C003F000F000300000093
:105AB000000000000000F03FFC3F7E3C3E3C1E3CEE
:105AC0001E3C3E3C3C3CFC3CF03FE03FF03DF83CA3
:105AD0007C3C3E3C1E3C1F3C0F3C00000000000094
