:020000040800F2
:10800000680400200181000899850008C1840008E7
:1080100095850008EB810008C98C0008000000006D
:10802000000000000000000000000000338800088D
:10803000EF81000800000000E58500086D89000858
:108040001B8100081B8100081B8100081B810008A0
:108050001B8100081B8100081B8100081B81000890
:108060001B8100081B8100081B8100081B81000880
:108070001B8100081B8100081B8100081B81000870
:108080001B8100081B8100081B8100081B81000860
:108090001B8100081B8100081B8100081B81000850
:1080A0001B8100081B8100081B8100081B81000840
:1080B0001B8100081B8100081B8100081B81000830
:1080C0001B8100081B8100081B8100081B81000820
:1080D0001B8100081B8100081B8100081B81000810
:1080E0001B8100081B8100081B810008DFF80CD0F1
:1080F00000F04AF80048004749930008680400204F
:108100000648804706480047FEE7FEE7FEE7FEE731
:10811000FEE7FEE7FEE7FEE7FEE7FEE775890008FB
:10812000ED8000082DE9F05F0546002092469B4651
:1081300088460646814640241BE02846414647467D
:10814000224600F042F853465A46C01A914110D3D5
:1081500011461846224600F029F82D1A67EB01084F
:108160004F4622460120002100F020F817EB0009BD
:108170004E41201EA4F10104DFDC484631462A4668
:108180004346BDE8F09F0000064C074D06E0E0685E
:1081900040F0010394E8070098471034AC42F6D34E
:1081A000FFF7A8FFFCC701081CC80108202A04DB50
:1081B000203A00FA02F1002070479140C2F12003FA
:1081C00020FA03F3194390407047202A04DB203A39
:1081D00021FA02F00021704721FA02F3D040C2F1E7
:1081E0002002914008431946704700BFFEE77047E0
:1081F0000349086000BF024909680029FBD17047A4
:108200004C00002000B597B00220019000200290A1
:108210000520039000200490059006900790089098
:1082200009900A9010200B9000200C900D900E9059
:108230000F9010904FF480501190002012901390E6
:10824000149001A81590169008A800F021F80121BB
:10825000002000F003F817B000BD000051B14FF04E
:10826000204252F8202042F001024FF0204343F810
:10827000202009E04FF0204252F82020034B1A4002
:108280004FF0204343F8202070470000FEFF0F000E
:10829000D0E901121143C2681143026911434269D6
:1082A000114382691143C2691143026A1143426A50
:1082B0001143826A1143C26A1143026B11434FF0AA
:1082C0002043026843F822108168082908D11A4621
:1082D000016852F8211041F04001026843F8221071
:1082E000416B0968426B526841EA0211426B926825
:1082F00041EA0221426B928941EA0241426B128AB1
:1083000041EA0251426B127D41EA0261426B92697D
:1083100011430268521C4FF0204343F82210C16AF7
:10832000B1F5804F1AD1816B0968826B526841EABE
:108330000211826B926841EA0221826B128A41EA41
:108340000251826B127D41EA0261826B9269114394
:10835000026803EB8202C2F8041108E06FF070417A
:108360004FF02043026803EB8202C2F80411704709
:108370002DE9F041024600250026002000230024BC
:10838000002791F803C00CF00F0591F803C01CF012
:10839000100F03D091F802C04CEA050591F800C017
:1083A000BCF1000F31D0146800202BE04FF0010C1D
:1083B0000CFA00F3B1F800C00CEA03069E4220D18B
:1083C00083004FF00F0C0CFA03F7BC4305FA03FCD3
:1083D0004CEA040491F803C0BCF1280F06D14FF019
:1083E000010C0CFA00FCC2F814C00AE091F803C0BA
:1083F000BCF1480F05D14FF0010C0CFA00FCC2F89B
:1084000010C0401C0828D1D31460B1F800C0BCF1E2
:10841000FF0F34DD546800202EE000F1080C4FF00F
:10842000010808FA0CF3B1F800C00CEA03069E42FA
:1084300021D183004FF00F0C0CFA03F7BC4305FA6F
:1084400003FC4CEA040491F803C0BCF1280F05D1E9
:1084500000F1080C08FA0CF8C2F8148091F803C077
:10846000BCF1480F07D100F1080C4FF0010808FAE1
:108470000CF8C2F81080401C0828CED35460BDE828
:10848000F0810246002093680B4201D0012000E0F9
:1084900000207047416170470161704706480068DD
:1084A000064908600448001D00684860024808301A
:1084B0000068886070470000E8F7FF1F5800002040
:1084C00000BFFEE708B54CF23370ADF800000320A2
:1084D0008DF8020018208DF8030069460C48FFF75C
:1084E00047FF4FF68070ADF8000069460948FFF776
:1084F0003FFF8020ADF8000069460548FFF738FFD0
:108500000420ADF8000069460248FFF731FF08BDBE
:10851000001401400018014001464FF0C24210888B
:1085200070474FF0C2410880704722204FF0C04191
:10853000088070474FF0C04210804FF0C242118057
:108540007047000008B50520ADF8000003208DF845
:10855000020010208DF8030069460C48FFF708FF61
:108560000320ADF800008DF8020010208DF8030004
:1085700069460748FFF7FCFE05210448FFF78AFF1C
:1085800003210348FFF786FF08BD000000100140EB
:108590000018014000BFFEE7704710B54FF40041DE
:1085A000080300F015F810BD10B5002807DA0A0717
:1085B000140E054A00F00F031B1FD45403E00A07F2
:1085C000130E024A135410BD18ED00E000E400E061
:1085D000024A0A400243024B1A60704780FFFF1FA5
:1085E00008ED00E07047000029B1064A52690243D5
:1085F000044B5A6104E0034A52698243014B5A61B9
:10860000704700000010024029B1064A92690243F7
:10861000044B9A6104E0034A92698243014B9A61D8
:10862000704700000010024010B501210420FFF740
:10863000EBFF01210820FFF7E7FF01211020FFF7E2
:10864000E3FF01212020FFF7DFFF01214020FFF79A
:10865000DBFF01210846FFF7D7FF01218803FFF761
:10866000D3FF01210802FFF7BFFF10BD30B5002185
:108670000022002400232D4D6D6805F00C0121B16E
:10868000042905D0082923D105E0294D056022E001
:10869000274D05601FE0254D6D6805F47012234DD0
:1086A0006D6805F48034022505EB92421CB9214D1A
:1086B000554305600BE01D4D6D6815F4003F03D078
:1086C0001C4D5543056002E0194D5543056002E01D
:1086D000174D056000BF00BF144D6D6805F0F00137
:1086E0000909154D6B5C0568DD4045600F4D6D68EF
:1086F00005F4E061090A104D6B5C4568DD4085605A
:108700000A4D6D6805F46051C90A0B4D6B5C4568F4
:10871000DD40C560054D6D6805F44041890B074D8E
:108720006B5CC568B5FBF3F5056130BD0010024018
:1087300000127A0000093D002400002034000020CF
:1087400008B5A020ADF8000003208DF8020010202D
:108750008DF8030069461448FFF70AFE4020ADF883
:10876000000004208DF8030069460F48FFF700FE63
:108770001020ADF8000003208DF8020010208DF8C5
:10878000030069460948FFF7F3FD08210748FFF792
:1087900083FE4FF480510648FFF77EFE1021034808
:1087A000FFF77AFE08BD00000008014000180140F4
:1087B0000010014010B5044624B120210448FFF701
:1087C0006BFE03E020210248FFF764FE10BD0000AD
:1087D0000008014010B5044624B110210448FFF7F9
:1087E0005BFE03E010210248FFF754FE10BD0000BD
:1087F0000018014010B5044624B180210448FFF759
:108800004BFE03E080210248FFF744FE10BD00004C
:108810000008014010B540210148FFF732FE10BDAD
:1088200000080140002101E04A1C91B28142FBDBBB
:108830007047704710B500F001F810BD0CB500206E
:10884000019000903348006840F48030314908605E
:1088500000BF3048006800F4003000900198401CD0
:108860000190009820B90198A0F57F41FF39F0D11F
:108870002848006810F4003F02D00120009001E079
:10888000002000900098012842D12348006840F061
:108890001000214908600846006820F003000860C5
:1088A0000846006840F0020008601A48406819490C
:1088B00048600846406848600846406840F4806068
:1088C00048600846406820F47C10486008464068CC
:1088D00040F4E81048600846006840F08070086086
:1088E00000BF0C48006810F0007FFAD009484068CB
:1088F00020F00300074948600846406840F0020045
:10890000486000BF0348406800F00C000828F9D117
:108910000CBD0000001002400020024010B51248BB
:10892000006842F21071B0FBF1F4B4F1807F01D322
:10893000012011E024F07F40401E4FF0E02148610B
:108940000F214FF0FF30FFF72FFE00204FF0E02106
:10895000886107200861002008B100BFFEE7002100
:10896000481EFFF721FE10BD3800002010B500F0B2
:1089700031F810BD10B51348006840F001001149EE
:10898000086008464068104908400E49486008469B
:1089900000680E4908400B4908600846006820F44A
:1089A000802008600846406820F4FE0048604FF4CC
:1089B0001F008860FFF73EFF4FF000600449086029
:1089C00010BD0000001002400000FFF8FFFFF6FE9F
:1089D00008ED00E00448006820B103480068401E2C
:1089E00001490860704700004C00002010B500F0FD
:1089F00045F808B1002010BD00F073F8002000F029
:108A000081F8D22000F07EF800F052F8F3E710B5BC
:108A100000F034F808B1002010BD00F062F800202A
:108A200000F070F8922000F06DF800F041F8F3E7E4
:108A300070B50024002509E0FFF7D8FF204484B278
:108A40004FF47A70FFF7EEFE681CC5B2082DF3DB19
:108A5000E410204670BD70B50024002509E0FFF742
:108A6000D6FF204484B24FF47A70FFF7DBFE681C17
:108A7000C5B2082DF3DBE410204670BD10B52021EF
:108A80000148FFF7FEFC10BD0018014008B520208A
:108A9000ADF8000003208DF8020004208DF80300DB
:108AA00069460248FFF764FC08BD00000018014059
:108AB00070B50024002510E04FF6FF7000EA440472
:108AC0000120FFF777FE0020FFF774FEFFF7A2FEFC
:108AD00008B1601C84B2681CC5B20C2DECDB2046CA
:108AE00070BD10B50020FFF765FE0120FFF772FE94
:108AF0000120FFF77FFE0120FFF75CFE0020FFF75B
:108B000069FE10BD70B506460020FFF753FE002435
:108B100013E0C4F1070046FA00F000F00105284612
:108B2000FFF768FE0020FFF745FE0120FFF742FE39
:108B30000020FFF73FFE601CC4B2082CE9DB70BDCB
:108B40001FB54FF4E13000900020ADF80400ADF8FF
:108B50000600ADF80800ADF80C000C20ADF80A00D6
:108B60006946044800F040F80121024800F022F86C
:108B70001FBD00000038014008B54FF40070ADF88B
:108B8000000003208DF8020018208DF803006946CC
:108B90000748FFF7EDFB4FF48060ADF800000420BC
:108BA0008DF8030069460248FFF7E2FB08BD0000AC
:108BB0000008014021B1828942F40052828104E020
:108BC00082894DF6FF731A40828170470246002069
:108BD000B1F5007F00D100BF13880B4201D0012006
:108BE00000E00020704700002DE9F04786B0054600
:108BF0000E460024A24600BFA1460027B08900B15E
:108C000000BF2F462C8A4CF6FF700440F0880443C6
:108C10002C82AC894EF6F3100440B08831890843A9
:108C2000718908430443AC81AC8A4FF6FF4004408D
:108C3000B0890443AC8201A8FFF718FD1F488742A2
:108C400002D1DDF810A001E0DDF80CA0A88910F435
:108C5000004F08D00AEBCA0000EB0A103168490047
:108C6000B0FBF1F807E00AEBCA0000EB0A1031682C
:108C70008900B0FBF1F86420B8FBF0F00401200992
:108C8000642101FB1089A88910F4004F08D032201C
:108C900000EBC900B0FBF1F000F00700044308E06E
:108CA000322000EB09106421B0FBF1F000F00F005E
:108CB00004432C8106B0BDE8F08700000038014075
:108CC000C1F308028280704700BFFEE7034600BF81
:108CD000A3F5967202EB0210C0EB022240F6DE50C2
:108CE000B2FBF0F081B2002901DDF02901DD0020A6
:108CF00070470846FCE7034600BFA3F1DC02C2EB65
:108D0000821000EB022240F62E60B2FBF0F081B23E
:108D1000002902DDB1F5A07F01DD00207047084683
:108D2000FCE700000FB4054B10B503A9044A0298F4
:108D300000F018F810BC5DF814FB00002590000846
:108D40005400002002E008C8121F08C1002AFAD10E
:108D500070477047002001E001C1121F002AFBD1BB
:108D6000704700002DE9FF4F8DB09B460F4604462B
:108D7000002638E1252801D00F9959E00025641C10
:108D80009D49A84601222378203B02FA03F00842BD
:108D900002D00543641CF6E720782E2817D114F87A
:108DA000010F45F004052A280ED06FF02F0220781D
:108DB000A0F1300109290AD808EB880102EB410132
:108DC00000EB0108641CF2E757F8048B641C207860
:108DD0006C280DD004DC4C2812D06A2811D104E094
:108DE00074280DD07A280CD10AE045F4001507E06C
:108DF000617845F48015814202D1641C05F5801527
:108E0000641C2278692A46D008DC002A70D0582ACF
:108E100069D0632A11D0642A08D13CE0702A69D055
:108E2000732A14D0752A5CD0782A5CD00F9910462A
:108E30005A46904706F10106D4E017F8040B8DF866
:108E4000000000208DF80100E946012003E057F8FA
:108E5000049B4FF0FF3069074FF0000501D40AE092
:108E60006D1C45450DDA8542FADB19F8051000291D
:108E7000F6D106E06D1C8542FCDB19F805100029CF
:108E8000F8D12E4404E019F8010B5A460F99904787
:108E90006D1EF8D2A6E00A200021CDE90801C5F335
:108EA000025002280BD001CFC11700290EDA4FF073
:108EB000000CD0EB0C006CEB01012D2309E007F155
:108EC000070727F00707F7E80201EEE72B0504D5AF
:108ED0002B238DF82830012330E0EB072ED0202300
:108EE000F7E70A2000E010200021CDE9080109E0A1
:108EF0007DE0FFE71020002145F00405CDE90801E1
:108F00004FF00808C5F3025002281BD001CF002102
:108F10004FF0000A2B0712D5702A19D0DDE908C3DB
:108F20008CF0100C5CEA030C09D150EA010306D066
:108F300030238DF828308DF8292002239A46582AAC
:108F400010D00AE0FF1D27F00707F7E80201DFE76E
:108F500040228DF828204FF0010A28A20DF12009A7
:108F60000B9209E02AA2F9E7DDE90823FFF7DAF816
:108F70000B9B9B5C09F8013D50EA0102F4D1ADEB7B
:108F8000090000F120000890680701D44FF00108A3
:108F90000899884502DDA8EB010000E0002080462A
:108FA000002506E00AA85A46405D0F999047761CB6
:108FB0006D1C5545F6DB04E030205A460F9990476A
:108FC000761CB8F10001A8F10108F5DC05E019F8FC
:108FD000010B5A460F999047761C0899481E089035
:108FE0000029F4DC641C207800287FF4C3AE11B0A3
:108FF0003046BDE8F08F00000928010030313233DF
:1090000034353637383961626364656600000000C4
:1090100030313233343536373839414243444546AE
:109020000000000070B504460D46E1B20548FFF7A8
:1090300047FE00BF80210348FFF7C8FD0028F9D094
:10904000204670BD0038014030B50446002500219F
:10905000084600F057F9FFF768FA00BF03E04FF049
:10906000C24004806D1CB5F5963FF8D330BD2DE9A4
:10907000F84F04460E4617469946DDF828B02546B7
:10908000B046381B401CA9EB0601491C4843009020
:109090004FF0000A10E03BF8022B4146284600F052
:1090A0003DF9681C85B2BD4204DD08F101001FFADC
:1090B00080F825460AF1010A00988245EBD3BDE805
:1090C000F88F00B501210020FFF734FA4AF6A40119
:1090D0000320FFF72FFA00210C20FFF72BFA40F6B0
:1090E0000C010D20FFF726FA4FF42C510E20FFF74C
:1090F00021FAB0211E20FFF71DFA42F63F31012070
:10910000FFF718FA4FF4C0610220FFF713FA0021AD
:109110001020FFF70FFA46F270011120FFF70AFA4C
:1091200000210520FFF706FA00210620FFF702FACA
:109130004EF61C711620FFF7FDF903211720FFF7EB
:10914000F9F940F233210720FFF7F4F900210B2051
:10915000FFF7F0F900210F20FFF7ECF90021412083
:10916000FFF7E8F900214220FFF7E4F90021482049
:10917000FFF7E0F940F23F114920FFF7DBF900214A
:109180004A20FFF7D7F900214B20FFF7D3F94FF41E
:109190006F414420FFF7CEF900214520FFF7CAF9BF
:1091A00040F23F114620FFF7C5F940F20771302029
:1091B000FFF7C0F94FF401713120FFF7BBF94FF40D
:1091C00001713220FFF7B6F940F202513320FFF768
:1091D000B1F940F207513420FFF7ACF94FF40171B7
:1091E0003520FFF7A7F94FF401713620FFF7A2F9F8
:1091F00040F202513720FFF79DF940F202313A2048
:10920000FFF798F940F202313B20FFF793F9002174
:109210002320FFF78FF900212420FFF78BF94FF46B
:1092200000412520FFF786F900214E20FFF782F943
:1092300000214F20FFF77EF94CF2503301E0581E19
:1092400083B2002BFBDC00BD2DE9F04F06460F4634
:1092500090469946DDF824A000240025A346BAF1E3
:10926000010F21D100BF1CE0A8F1200004EB001089
:10927000234911F800B000250FE0C5F107004BFAB3
:1092800000F010F0010F06D03A1991B2721990B2A5
:109290004A4600F043F8681C85B2082DEDDB601CDF
:1092A00084B2102CE0DB28E0002424E0A8F12000A8
:1092B00004EB0010124911F800B0002517E0C5F1C9
:1092C00007004BFA00F010F0010F07D03A1991B2E5
:1092D000721990B24A4600F021F806E03A1991B2AC
:1092E000721990B2524600F019F8681C85B2082D28
:1092F000E5DB601C84B2102CD8DBBDE8F08F0000E9
:10930000E496000810B503460C4619464E20FFF7B8
:1093100011F921464F20FFF70DF910BD70B5064633
:109320000C461546F02E02DCB4F5A07F00DD70BDC2
:1093300021463046FFF7E6FFFFF7F7F82846FFF72C
:10934000F0F800BFF3E7000008B5FFF76DF9FFF78D
:1093500024F9FFF7E3FAFFF7F5F8FFF70DFCFFF745
:10936000EFFB5048FFF7DEFC4FA0FFF7DBFC59A1F5
:109370005BA0FFF7D7FC66A0FFF7D4FC74A0FFF753
:10938000D1FC00230522032172A0FFF7CBFC7F480C
:1093900001687FA0FFF7C6FC8748018887A0FFF718
:1093A000C1FCFFF77BF88D480368426881688CA098
:1093B000FFF7B8FC98A0FFF7B5FCFEF723FFFFF717
:1093C00081F8FFF7BDF9FFF761FB4FF4FA70FEF784
:1093D0000FFF0020FFF7A0F8994908804FF4FA70BA
:1093E000FEF706FF0020FFF797F89549088008462A
:1093F000018894A0FFF796FCFFF763FE1F20FFF79C
:1094000023FE9B489523EF22002100900846FFF79A
:109410002EFE98489849086000209849088019E075
:109420001F209549009009680A7893490968491CEA
:10943000914C216091490988C900323188B24FF4BA
:1094400078434FF49671FFF7FFFE8C480088401C6C
:109450008A490880894800881228E1D320E0FFF774
:109460000DFBE8B9FFF7E4FA85490880FFF7F3FA46
:109470008449088082480088FFF728FC82490880D8
:1094800080480088FFF737FCC0F5A0707F4908804E
:109490004FF47842084601887B480088FFF73EFF7A
:1094A000DDE70000909600080A0D47443332313062
:1094B00033432D4556414C2053797374656D2069B3
:1094C00073205374617274696E672075702E2E2E2E
:1094D0000A0D0000312E302E3030303000000000F8
:1094E0000A0D47443332313033432D4556414C2029
:1094F00050726F6772616D2056657273696F6E206E
:109500006E756D6265723A474425730A0D0000005E
:109510000A0D47443332313033432D4556414C20F8
:1095200050726F6772616D20436F6D70696C65205A
:1095300074696D653A2841756720333120323031C6
:1095400035202D2031343A30333A333129000000B0
:109550000D0A00000A0D47443332313033432D45A4
:1095600056414C2053544D3332463130785F53745A
:10957000645065726970685F56657273696F6E3AA0
:1095800025642E25642E25640A0D00003800002075
:109590000A0D47443332313033432D4556414C2078
:1095A00053797374656D436F7265436C6F636B3A87
:1095B0002564487A0A0D0000E0F7FF1F0A0D4744B2
:1095C0003332313033432D4556414C20466C617364
:1095D000683A25644BD7D6BDDA0A0D005800002042
:1095E0000A0D47443332313033432D4556414C2028
:1095F0005468652043505520556E69717565204447
:1096000065766963652049443A5B25582D25582DB8
:1096100025585D0A0D0000000D0A474433323130F1
:1096200033432D4556414C20544654204C4344204E
:10963000636F6E666967757265642E2E2E0A0D0063
:10964000500000200A0D546865204C434420436FAD
:109650006E74726F6C6C65722044657669636543E5
:109660006F6465203D20307825580A0D0000000009
:10967000BCAE0008000000202000002014000020E4
:10968000180000201A0000201C0000201E000020EE
:109690000A0D2323232323232323232323232323C9
:1096A000232323232323232323232323232323238A
:1096B000232323232323232323232323232323237A
:1096C000232323232323232323232323232323236A
:1096D000232323232323232323232323232323235A
:1096E000230A0D0000000000000000000000000040
:1096F000000000000000183C3C3C18181800181826
:109700000000000000666666240000000000000003
:10971000000000000000006C6CFE6C6C6CFE6C6C59
:109720000000000018187CC6C2C07C0686C67C18E3
:109730001800000000000000C2C60C183060C68689
:10974000000000000000386C6C3876DCCCCCCC76A5
:109750000000000000303030600000000000000019
:109760000000000000000C18303030303030180C91
:1097700000000000000030180C0C0C0C0C0C183011
:10978000000000000000000000663CFF3C66000096
:1097900000000000000000000018187E18180000EB
:1097A0000000000000000000000000000018181871
:1097B0003000000000000000000000FE000000007B
:1097C0000000000000000000000000000000181869
:1097D000000000000000000002060C183060C0808D
:1097E0000000000000007CC6C6CED6D6E6C6C67C09
:1097F0000000000000001838781818181818187E93
:109800000000000000007CC6060C183060C0C6FED8
:109810000000000000007CC606063C060606C67C6A
:109820000000000000000C1C3C6CCCFE0C0C0C1E5C
:10983000000000000000FEC0C0C0FC0E0606C67C92
:109840000000000000003860C0C0FCC6C6C6C67C70
:10985000000000000000FEC606060C183030303054
:109860000000000000007CC6C6C67CC6C6C6C67C1A
:109870000000000000007CC6C6C67E0606060C7806
:109880000000000000000000181800000018180078
:109890000000000000000000181800000018183038
:1098A00000000000000000060C18306030180C06A4
:1098B00000000000000000000000FE0000FE0000AC
:1098C000000000000000006030180C060C1830602A
:1098D0000000000000007CC6C60C181818001818FC
:1098E000000000000000007CC6C6DEDEDEDCC07CBE
:1098F00000000000000010386CC6C6FEC6C6C6C612
:10990000000000000000FC6666667C66666666FC19
:109910000000000000003C66C2C0C0C0C0C2663C7F
:10992000000000000000F86C6666666666666CF80B
:10993000000000000000FE6662687868606266FEF3
:10994000000000000000FE6662687868606060F0F9
:109950000000000000003C66C2C0C0DEC6C6663A19
:10996000000000000000C6C6C6C6FEC6C6C6C6C603
:109970000000000000003C18181818181818183CAF
:109980000000000000001E0C0C0C0C0CCCCCCC78A1
:10999000000000000000E6666C6C78786C6666E695
:1099A000000000000000F06060606060606266FEC1
:1099B000000000000000C6EEFEFED6C6C6C6C6C643
:1099C000000000000000C6E6F6FEDECEC6C6C6C633
:1099D000000000000000386CC6C6C6C6C6C66C389B
:1099E000000000000000FC6666667C60606060F05D
:1099F0000000000000007CC6C6C6C6C6C6D6DE7C17
:109A00000C0E00000000FC6666667C6C666666E60E
:109A10000000000000007CC6C660380C06C6C67C8C
:109A20000000000000007E7E5A1818181818183C14
:109A3000000000000000C6C6C6C6C6C6C6C6C67CB4
:109A4000000000000000C6C6C6C6C6C6C66C3810F8
:109A5000000000000000C6C6C6C6C6D6D6FE6C6CA6
:109A6000000000000000C6C66C6C38386C6CC6C6BE
:109A7000000000000000666666663C181818183C76
:109A8000000000000000FEC6860C183060C2C6FE52
:109A90000000000000003C30303030303030303CCE
:109AA0000000000000000080C0E070381C0E0602BC
:109AB0000000000000003C0C0C0C0C0C0C0C0C3CCE
:109AC0000000000010386CC600000000000000001C
:109AD0000000000000000000000000000000000086
:109AE00000FF0000303018000000000000000000FF
:109AF000000000000000000000780C7CCCCCCC768C
:109B0000000000000000E06060786C66666666DC5D
:109B10000000000000000000007CC6C0C0C0C67C81
:109B20000000000000001C0C0C3C6CCCCCCCCC76B3
:109B30000000000000000000007CC6FEC0C0C67C23
:109B4000000000000000386C6460F060606060F04D
:109B500000000000000000000076CCCCCCCCCC7C17
:109B60000CCC78000000E060606C7666666666E6A5
:109B70000000000000001818003818181818183CC9
:109B80000000000000000606000E06060606060697
:109B900066663C000000E06060666C78786C66E6A3
:109BA0000000000000003818181818181818183C81
:109BB000000000000000000000ECFED6D6D6D6D68D
:109BC000000000000000000000DC66666666666655
:109BD0000000000000000000007CC6C6C6C6C67CAF
:109BE000000000000000000000DC66666666667C1F
:109BF0006060F000000000000076CCCCCCCCCC7CC7
:109C00000C0C1E000000000000DC7662606060F05A
:109C10000000000000000000007CC660380CC67C1C
:109C2000000000000000103030FC30303030361CB6
:109C3000000000000000000000CCCCCCCCCCCC76E6
:109C400000000000000000000066666666663C18C2
:109C5000000000000000000000C6C6C6D6D6FE6C9C
:109C6000000000000000000000C66C3838386CC6E8
:109C7000000000000000000000C6C6C6C6C6C67EC2
:109C8000060CF8000000000000FECC183060C6FE94
:109C90000000000000000E18181870181818180E90
:109CA00000000000000018181818001818181818DC
:109CB000000000000000701818180E18181818700E
:109CC00000000000000076DC000000000000000042
:109CD000000000000000000010386CC6C6C6FE0080
:109CE0000000000000000000000000000000000074
:109CF0000000000000000000000000000000000064
:109D00000000000000000000000000000000000053
:109D100000000000000080018001800180018001BE
:109D2000800180018001800180018001800180012B
:109D30000000000080018001000000000000000021
:109D40000000000000000000CC00CC00CC00CC00E3
:109D5000CC00CC000000000000000000000000006B
:109D600000000000000000000000000000000000F3
:109D700000000000000000000000000000000000E3
:109D8000600C600C600C30063006FE1FFE1F3006B3
:109D900038071803FE1FFE1F180318038C018C01DF
:109DA0008C01000000008000E003F80F9C0E8C1C6A
:109DB0008C188C009800F801E007800E801C8C182D
:109DC0008C189C18B80CF00FE00380008000000095
:109DD000000000000000000000000E181B0C110C19
:109DE00011061106110311039B018E01C038C06CCE
:109DF00060446044304430441844186C0C3800000F
:109E0000000000000000E001F00338071806180603
:109E10003003F001F000F8009C310E33061E061CE2
:109E2000061C063FFC73F02100000000000000004B
:109E300000000000000000000C000C000C000C00F2
:109E40000C000C00000000000000000000000000FA
:109E50000000000000000000000000000000000002
:109E6000000000000000000200038001C000C000EC
:109E70006000600030003000300030003000300002
:109E80003000300060006000C000C00080010003AE
:109E900000020000000020006000C000800180017E
:109EA0000003000300060006000600060006000688
:109EB000000600060003000380018001C00060006E
:109EC0002000000000000000000000000000000072
:109ED000C000C000D806F807E001300338070000D2
:109EE0000000000000000000000000000000000072
:109EF0000000000000000000000000000000000062
:109F000080018001800180018001FC3FFC3F8001D5
:109F1000800180018001800100000000000000003D
:109F20000000000000000000000000000000000031
:109F30000000000000000000000000000000000021
:109F4000000000000000800180010001000180008D
:109F50000000000000000000000000000000000001
:109F6000000000000000000000000000E007E00723
:109F700000000000000000000000000000000000E1
:109F800000000000000000000000000000000000D1
:109F900000000000000000000000000000000000C1
:109FA000000000000000C000C00000000000000031
:109FB000000000000000000C000C00060006000677
:109FC0000003000300038003800180018001C000C2
:109FD000C000C00060006000000000000000000041
:109FE000000000000000E003F007380E180C0C1809
:109FF0000C180C180C180C180C180C180C180C1841
:10A00000180C380EF007E00300000000000000000C
:10A0100000000000000000018001C001F001980173
:10A020008801800180018001800180018001800120
:10A03000800180018001800100000000000000001C
:10A04000000000000000E003F80F180C0C180C18BA
:10A0500000180018000C000600038001C00060001A
:10A0600030001800FC1FFC1F000000000000000072
:10A07000000000000000E001F807180E0C0C0C0CAA
:10A08000000C0006C003C007000C001800180C18D4
:10A090000C18180CF807E003000000000000000096
:10A0A000000000000000000C000E000F000F800DEB
:10A0B000C00C600C600C300C180C0C0CFC3FFC3F0E
:10A0C000000C000C000C000C000000000000000060
:10A0D000000000000000F80FF80F180018000C0036
:10A0E000EC03FC071C0E001C0018001800180C18CC
:10A0F0001C0C180EF807E003000000000000000030
:10A10000000000000000C007F00F381C18181800ED
:10A110000C00CC03EC0F3C0E1C1C0C180C180C187B
:10A12000181C380EF007E0030000000000000000DB
:10A13000000000000000FC1FFC1F000C00060006D1
:10A14000000380038001C001C000E00060006000E7
:10A1500070003000300030000000000000000000FF
:10A16000000000000000E003F007380E180C180C87
:10A17000180C3806F007F007180C0C180C180C18FF
:10A180000C18380CF80FE00300000000000000007D
:10A19000000000000000E003F007380E1C0C0C1853
:10A1A0000C180C181C1C381EF81BE0190018000CA9
:10A1B000000C1C0EF807F001000000000000000079
:10A1C000000000000000000000000000000000008F
:10A1D000800180010000000000000000000000007D
:10A1E000000000008001800100000000000000006D
:10A1F000000000000000000000000000000000005F
:10A20000800180010000000000000000000000004C
:10A2100000000000800180010001000180000000BA
:10A22000000000000000000000000000000000002E
:10A23000000000000010001C800FE003F800180070
:10A24000F800E003800F001C001000000000000078
:10A2500000000000000000000000000000000000FE
:10A2600000000000F81F000000000000F81F0000C0
:10A2700000000000000000000000000000000000DE
:10A2800000000000000000000000000000000000CE
:10A290000000000008003800F001C007001F00188F
:10A2A000001FC007F0013800080000000000000097
:10A2B000000000000000E003F80F180C0C180C1848
:10A2C0000018000C000600038001C000C000C000A0
:10A2D00000000000C000C0000000000000000000FE
:10A2E0000000000000000000E00718180420C22948
:10A2F000224A114409440944094409221113E20C79
:10A30000024004201818E0070000000000000000D0
:10A3100000000000000080038003C006C006C006E5
:10A32000600C600C301830183018F83FF83F1C7083
:10A330000C600C6006C006C00000000000000000B9
:10A34000000000000000FC03FC0F0C0C0C180C18A3
:10A350000C180C0CFC07FC0F0C180C300C300C30DB
:10A360000C300C18FC1FFC0700000000000000006F
:10A37000000000000000C007F01F38381C300C70CF
:10A3800006600600060006000600060006000660DD
:10A390000C701C30F01FE0070000000000000000FF
:10A3A000000000000000FE03FE0F060E061806184F
:10A3B0000630063006300630063006300630061805
:10A3C0000618060EFE0FFE0300000000000000004D
:10A3D000000000000000FC3FFC3F0C000C000C00E3
:10A3E0000C000C00FC1FFC1F0C000C000C000C00EF
:10A3F0000C000C00FC3FFC3F0000000000000000CF
:10A40000000000000000F83FF83F18001800180096
:10A4100018001800F81FF81F18001800180018007E
:10A4200018001800180018000000000000000000CC
:10A43000000000000000E00FF83F3C780E6006E0EE
:10A4400007C00300030003FE03FE03C007C006C0ED
:10A450000EC03CF0F83FE00F0000000000000000DC
:10A460000000000000000C300C300C300C300C30C0
:10A470000C300C30FC3FFC3F0C300C300C300C30FE
:10A480000C300C300C300C300000000000000000DC
:10A490000000000000008001800180018001800137
:10A4A00080018001800180018001800180018001A4
:10A4B0008001800180018001000000000000000098
:10A4C000000000000000000600060006000600066E
:10A4D0000006000600060006000600060006180634
:10A4E00018063807F003E00100000000000000003B
:10A4F00000000000000006300618060C06060603E1
:10A500008601C60066007600DE008E0106030606A0
:10A51000060C06180630066000000000000000006F
:10A5200000000000000018001800180018001800B3
:10A53000180018001800180018001800180018005B
:10A5400018001800F81FF81F0000000000000000AD
:10A550000000000000000EE01EF01EF01EF036D8D5
:10A5600036D836D836D866CC66CC66CCC6C6C6C613
:10A57000C6C6C6C686C386C3000000000000000031
:10A580000000000000000C301C303C303C306C30CF
:10A590006C30CC30CC308C310C330C330C360C3668
:10A5A0000C3C0C3C0C380C3000000000000000009B
:10A5B000000000000000E007F81F1C380E70066065
:10A5C00003C003C003C003C003C003C003C00660D0
:10A5D0000E701C38F81FE0070000000000000000AB
:10A5E000000000000000FC0FFC1F0C380C300C3089
:10A5F0000C300C300C18FC1FFC070C000C000C007D
:10A600000C000C000C000C0000000000000000001A
:10A61000000000000000E007F81F1C380E70066004
:10A6200003E003C003C003C003C003C007E0066328
:10A630000E3F1C3CF83FE0F700C0000000000000A7
:10A64000000000000000FE0FFE1F06380630063036
:10A6500006300638FE1FFE0706030606060C06181F
:10A6600006180630063006600000000000000000FA
:10A67000000000000000E003F80F1C0C0C180C1880
:10A680000C001C00F803E00F001E003806300630F6
:10A690000E301C1CF80FE007000000000000000056
:10A6A000000000000000FE7FFE7F8001800180012D
:10A6B0008001800180018001800180018001800192
:10A6C0008001800180018001000000000000000086
:10A6D0000000000000000C300C300C300C300C304E
:10A6E0000C300C300C300C300C300C300C300C308A
:10A6F0000C301818F81FE0070000000000000000F0
:10A7000000000000000003600630063006300C1820
:10A710000C180C18180C180C380E30063006700780
:10A7200060036003C001C0010000000000000000E1
:10A730000000000000000360C361C361C3616633B1
:10A74000663366336633663366336C1B6C1B6C1B77
:10A750002C1A3C1E380E380E0000000000000000CD
:10A760000000000000000FE00C7018303018700C72
:10A77000600EC00780038003C003E006700C301C2D
:10A7800018180C300E6007E0000000000000000008
:10A7900000000000000003C006600C301C383818B0
:10A7A000300C6006E007C003800180018001800159
:10A7B0008001800180018001000000000000000095
:10A7C000000000000000FC7FFC7F006000300018EB
:10A7D000000C000600038001C0006000300018007B
:10A7E0000C000600FE7FFE7F00000000000000005D
:10A7F000000000000000E003E00360006000600073
:10A800006000600060006000600060006000600048
:10A810006000600060006000600060006000E003B5
:10A82000E0030000000030003000600060006000C5
:10A83000C000C000C000C001800180018001000391
:10A8400000030003000600060000000000000000F6
:10A85000000000000000E003E00300030003000329
:10A8600000030003000300030003000300030003D0
:10A870000003000300030003000300030003E003E0
:10A88000E003000000000000C001C001600360039D
:10A89000600330063006180C180C000000000000A1
:10A8A00000000000000000000000000000000000A8
:10A8B0000000000000000000000000000000000098
:10A8C0000000000000000000000000000000000088
:10A8D000000000000000FFFFFFFF0000000000007C
:10A8E0000000000000000C000C000C000C000C002C
:10A8F0000C0000000000000000000000000000004C
:10A900000000000000000000000000000000000047
:10A910000000000000000000000000000000000037
:10A92000F003F8071C0C0C0C000FF00FF80C0C0CCB
:10A930000C0C1C0FF80FF0180000000000000000C5
:10A94000000000000000180018001800180018008F
:10A95000D803F80F380C18181818181818181818E1
:10A960001818380CF80FD803000000000000000091
:10A9700000000000000000000000000000000000D7
:10A98000C003F007300E180C18001800180018004B
:10A99000180C300EF007C00300000000000000009B
:10A9A000000000000000001800180018001800182F
:10A9B000C01BF01F301C1818181818181818181871
:10A9C0001818301CF01FC01B000000000000000021
:10A9D0000000000000000000000000000000000077
:10A9E000C003F00F300C1818F81FF81F18001800DB
:10A9F0003818301CF00FC0070000000000000000F5
:10AA0000000000000000800FC00FC000C000C000A8
:10AA1000F007F007C000C000C000C000C000C000C8
:10AA2000C000C000C000C000000000000000000026
:10AA30000000000000000000000000000000000016
:10AA4000E00DF80F180E0C0C0C0C0C0C0C0C0C0C74
:10AA50000C0C180EF80FE00D000C0C0C1C06F8077F
:10AA6000F00100000000180018001800180018007D
:10AA7000D807F80F381C18181818181818181818AC
:10AA80001818181818181818000000000000000006
:10AA9000000000000000C000C00000000000000036
:10AAA000C000C000C000C000C000C000C000C000A6
:10AAB000C000C000C000C000000000000000000096
:10AAC000000000000000C000C00000000000000006
:10AAD000C000C000C000C000C000C000C000C00076
:10AAE000C000C000C000C000C000C000C000F8002E
:10AAF0007800000000000C000C000C000C000C00A2
:10AB00000C0C0C060C038C01CC006C00FC009C01AE
:10AB10008C030C030C060C0C00000000000000006D
:10AB2000000000000000C000C000C000C000C00065
:10AB3000C000C000C000C000C000C000C000C00015
:10AB4000C000C000C000C000000000000000000005
:10AB500000000000000000000000000000000000F5
:10AB60007C3CFF7EC7E383C183C183C183C183C1B2
:10AB700083C183C183C183C10000000000000000C5
:10AB800000000000000000000000000000000000C5
:10AB90009807F80F381C18181818181818181818CB
:10ABA00018181818181818180000000000000000E5
:10ABB0000000000000000000000000000000000095
:10ABC000C003F00F300C1818181818181818181897
:10ABD0001818300CF00FC003000000000000000047
:10ABE0000000000000000000000000000000000065
:10ABF000D803F80F380C181818181818181818183F
:10AC00001818380CF80FD80318001800180018008E
:10AC1000180000000000000000000000000000001C
:10AC2000C01BF01F301C18181818181818181818FE
:10AC30001818301CF01FC01B00180018001800184E
:10AC400000180000000000000000000000000000EC
:10AC5000B007F003700030003000300030003000EA
:10AC60003000300030003000000000000000000024
:10AC700000000000000000000000000000000000D4
:10AC8000E003F003380E180C3800F003C007000C86
:10AC9000180C380EF007E003000000000000000070
:10ACA00000000000000000008000C000C000C000E4
:10ACB000F007F007C000C000C000C000C000C00026
:10ACC000C000C000C00780070000000000000000B6
:10ACD0000000000000000000000000000000000074
:10ACE00018181818181818181818181818181818E4
:10ACF0001818381CF01FE0190000000000000000C8
:10AD00000000000000000000000000000000000043
:10AD10000C18180C180C180C30063006300660039E
:10AD200060036003C001C0010000000000000000DB
:10AD30000000000000000000000000000000000013
:10AD4000C141C141C36163636363636336363636B1
:10AD500036361C1C1C1C1C1C0000000000000000DF
:10AD600000000000000000000000000000000000E3
:10AD70001C38381C300C60066003600360036003FD
:10AD80006006300C381C1C38000000000000000079
:10AD900000000000000000000000000000000000B3
:10ADA0001830301830187018600C600CE00CC006B9
:10ADB000C00680038003800380018001C001F00091
:10ADC0007000000000000000000000000000000013
:10ADD000FC1FFC1F000C000600038001C000600087
:10ADE00030001800FC1FFC1F0000000000000000E5
:10ADF00000000000000000038001C000C000C0008F
:10AE0000C000C000C0006000600030006000400072
:10AE1000C000C000C000C000C000C000800100032E
:10AE2000000000000000800180018001800180019D
:10AE3000800180018001800180018001800180010A
:10AE400080018001800180018001800180018001FA
:10AE50008001000000006000C000C001800180018E
:10AE6000800180018001000300030006000300014F
:10AE7000800180018001800180018001C0006000AC
:10AE800000000000000000000000000000000000C2
:10AE900000000000F010F81F080F00000000000084
:10AEA00000000000000000000000000000000000A2
:10AEB000000000000010F0009600011BDEAFDEAFC6
:10AEC000DFAFDEB7FFBFDEBFBFC7BEC7DEC7FFC78E
:10AED000BEC7BECFDFD7FFE7FFE7FFE7DFE7FFEF44
:10AEE000FFEFFFE7FFE7FFDFFFE7FFE7DFDF9FCFD2
:10AEF000FFB6DC6C3B6D9F8EFF961E97BFA79E9F93
:10AF00009EA7BEAFBFBFBEBFFFBFFFB7DFAFDFAF04
:10AF1000BEA79EA79EA79FA77FA75EA73EA75FAFDE
:10AF20007FBF9FBF7FBF7FBF7FBF5EBF9EC7BFCFBB
:10AF3000DFCFBFCFBFC7DFC7FFBFBEB7DFBFDFBF3A
:10AF4000BEB7DEB7DFBFDFBFDFCFFFD7DFCFDFC7E3
:10AF5000DFC7FFC7DFBFBFBF3FBF5FA61F5C1B1AB6
:10AF6000DA11FB3A7FA6FFDF7FCF1F851E643F64A7
:10AF7000FF5BBD32F919F611373BFA6CDC85DE9EBA
:10AF80009FAF7EA75E9F9FA7DFBFDFC7BFC7DFCF93
:10AF9000FFD7DFD7FFD7FFDFDFDFDFDFFFDFDFD761
:10AFA000DFDFDFDFBFD7BFD77FC7FDB65C9E9B8DDE
:10AFB000185CB632D511760177091D43FFA57FDFF6
:10AFC000FFF7FFF79FDFFCC65B9ED9853B865C865B
:10AFD0001B7E5B865B8E3A863B863A865B8E9C9EAA
:10AFE000DDA6BCA6BAA637A64F7CC95A0542665252
:10AFF0004A6B096B4652C449A449834943494341BA
:10B0000064418441C5510652A8622E94D19C32A558
:10B0100090942E84095BA64A484B884B674B0643A5
:10B02000C221AF8CFEF7FFF7FFEFFFEFDEDFDFE7B8
:10B03000FFE7BDDFBCE7BCE7DCEFFDF7FDEFFEEFB0
:10B04000FEF7BDE7DABE3BC71BC7FBC65CCF5CC7DC
:10B050003CBF1CB71DB73DBF1DBF3DBFDCAEBC9E96
:10B060009C965B8E9C969B96BC9EDCA61DAF1DB7E6
:10B07000FCAEDCAEDCA6BBA6DCAE1CB73DBFBBAEF7
:10B080009B9EFCA6FDA6DC9E7C8E1A7E5B869C8E1B
:10B09000FDA65EB7FFE7DFDFDDA6FA7DFFBFDFB706
:10B0A000DFBFBEB7BEBFFFC7FFCFDFCFDEC7DEC784
:10B0B000FFCFFFD7FFDFFFE7FFE7FFEFFFEFFFEF78
:10B0C000FFEFFFE7FFE7FFE7FFE7DFE7BFDF5FCF68
:10B0D0007E851A547D759F8E9E863E97BFA7DFAFF3
:10B0E000DFB7FFBFFFC7DFBFDFBFDEB7BEAFBEAF9B
:10B0F000BEAFBEAFBFB77FAFFDA65FAF1EA73B8E93
:10B100009985597D39757A851C961FB7FFD7BFCFB2
:10B11000BFCFBFC77EBF7EB7BFBFDFBFDFBFDFBF51
:10B12000DFBFDFBFBEBFDFC7FFCFFFCFDFC7DFBFE0
:10B13000DFC7FFC7BEB77FB71FBFDF9D5D431B1AC9
:10B14000F9193E5C3FC7DFBEBC741C649D53DA3AFC
:10B150005822B932DC537F85DFA61FAF1FA75FAF30
:10B160007FAF7EA77FA75EA75EAF3EAF5EB73EB75D
:10B170003EB75EBF3EBF7EC7BFCFBFD7BFCFBFCF3B
:10B18000BFD7BFD7DFD7FFD7DFD7BFCF7FC75FBF5F
:10B190001FBF9FAEDF95FF74DD5BB8323422B33A38
:10B1A000797C3FB6BFE7FFE79FCFFEAE5B961A867E
:10B1B0009C96BD9EDD9E3EAF1EA7FDA69B9EFDAE4E
:10B1C000BBA6BBAE34858D5B4742C53987524A6BFF
:10B1D0000963C85AA862E549834163416341223942
:10B1E000A1286020A028E1286339885AED83B09C0B
:10B1F000D19C8F8C2E846A63074B0743474B68535F
:10B20000484B042AC94AF6ADDEEFFFEFBEDFFFE789
:10B21000DEDFBEE7BDE7FDEFFDEFFDEFBCE7DDEFF5
:10B22000DDEFFEEFBDDF7CCF7CD75CCF5CCF3CC7D2
:10B230001BB7FCB61CB71CB7FCB61CB71DAFFDAEE8
:10B240009B969B969B969B96BCA6DCA6BBA6FCAE4B
:10B25000DCAEDCAE1CAFFCAEDCAE1CB7DCAEDCAEF4
:10B26000BBA6BB9EBC9E3A8E3B865B869C8EDD96C3
:10B270001E9F1DAFDFDFFFE71EAF1A86FFCFFFCF98
:10B28000FFCFFFCFFFC7DEC7DFCFDECFDFCFFFD7D8
:10B29000FFDFFFDFFFE7FFE7FFEFFFEFFFEFFFEF6E
:10B2A000FFEFFFEFFFE7FFE7DFE7BFDF5FCFBE9511
:10B2B000DA535C5CDF855E8E9D8E3E9FBFB7DFBF3D
:10B2C000FFC7FFC7FFCFFFC7FFBFBEB7BEAFBEB749
:10B2D000BFB7BFBFBFC73EB7BDAE1C9EB98DFA9DFD
:10B2E0005CAE5CAE9A95197D996CD753FB7C3FBFE1
:10B2F0009FC73EB7FDA65EAFBFBFFFC7FFC7DFBF9B
:10B30000BFBFBEBFDFC7FFCFFFCFFFCFDEC7FFC7C7
:10B31000FFBFBFB77EAF7FB79FAEFF7C9C2AFA11FD
:10B32000992ADF95FFB6FC7CFD5B3C435722F83A37
:10B33000BC6C3F963FB79FBF7FB75FB73EAFFEA6DF
:10B340001E9F1E9F1E9F1E9FFEA6FEA6DD9E9C9614
:10B350009C9E9D9E7C9EDEAE3FBF5FBF7FBF5FBF5A
:10B360005FBF3FBF5FBF7FC7DFD7FFDFFFD7BFCF65
:10B370009FCF5FBF3FBF3FBF1FBF9FAE7D8DD85BDD
:10B38000542AB3197A53DFA59FDFFFE77FCF9BA62F
:10B390009C9EFDAEFDAEBFCFBFCF5EBF3DBF7ECF9B
:10B3A0001CC7F284894A4321432987520963E96211
:10B3B000C85AA85A675A46526339A1208018E1201A
:10B3C0006439A4416331E22020108120A4416B7BC9
:10B3D0006F946F8C0D84AC7B2A634642C74A074B3F
:10B3E000684B885364328219CD633CD7FFE7DFE7AF
:10B3F000DFE7BEE7BDE7FEEFFDEFFDEFDCE7DDE7F2
:10B40000BDE7BDE79CDF9CD77CD77CCF9CCF5BC7DB
:10B410003BBF1BBF1CBFFBAEDCAEFCAEFCAEFDA653
:10B42000DCA69B9EDC9EDCA6DCAEFCAEDBA6BBA64F
:10B43000BBA6FCAEFCAEFCAE1CB71CBFFCB6FBAEA4
:10B44000DBAEBBA6BB9E5A969B967B8E9C8EBD9612
:10B45000BD96BCA69ED7FFEF5FBF5B8EDEC7DFC782
:10B46000FFCFFFCFDFC7DFC7FFCFFFD7FFD7FFDF9C
:10B47000FFDFFFE7FFEFFFEFFFEFFFEFFFEFFFEF74
:10B48000FFEFFFEFFFE7DFE7BFDF5FD7FF9DFA5377
:10B49000BA4B5F751F8E1D86BD967FAFFFC7FFC776
:10B4A000FFC7DFC7FFC7BEBF9EB7BEB7BEB7DFBF10
:10B4B000DFC7DFCFBFCFFDBE3BA6BDB69FD7FFE73F
:10B4C000FFEFFFE7BFDF7FD79FB65A6CF63AF95B15
:10B4D0007F9EFFAE1EA71DA7BFB79EB7BEBFFFC70B
:10B4E000BEBFDFC7FFCFFFCFFFC7FFC7DFBFFFBFB5
:10B4F000DFB77EAF7FB7FFAEDF95FD5B1A1AF91994
:10B50000FC5BDFB67F8D7D6C3A4357227D6C7FA656
:10B510007FBF9FBF5FB73EAF5EB79FBF7FBF7FB7A5
:10B520003EA7FEA6DE9EDE9EBD9EFEA6FEA61FA731
:10B530001FA71FA7DE9EBE9EBEA6DEAEFEAEFEAE5F
:10B54000DEA6BEA67DA69DA6DEAEFEB67FC7BFCF99
:10B55000BFCFBFCF7FBF3EB73FB73FB73FBF1FBFD4
:10B560005FA65E643722D419B8631FAEFFE7DFD74A
:10B57000FDB6BBAEFCB63DBF5EC77ECF9ED79EDF9D
:10B580003395484202218439885AE962096BA85AE6
:10B59000A85A6B73096BC5414339475AE96AAC8BAA
:10B5A0000D9C2E9C2E9C2E9CC54900108028A549E0
:10B5B0008C7B4E940A6B2A736B7B885A2542C74A50
:10B5C000074B474B8853064B6219E529B5A5FFE7A2
:10B5D000FFEFBEE7BEE7BDE7DDE7FDEFDDE7DDE757
:10B5E0009CDF7CDF7BD77BD75BD75BCF5BC75BC741
:10B5F0007CCF3BC73CBF1CBF3CBF1CB7FCAEDCAE26
:10B60000DCA6DCA6DCA6FCAE3CBFFBB6FBAEDBAE2C
:10B61000BAA69AA6BAAEBAAEFBBE1BBF1BBFFBB69C
:10B620001BBFDBAEBBA67B969B96BC969C8E7C8E8E
:10B630005B86BC9E7ECFFFEFBFC7BC9EDEBFDEBF7A
:10B64000BFBF9EBFBFBFFFCFFFCFFFD7FFD7FFDF7B
:10B65000FFE7FFEFFFEFFFEFFFEFFFEFFFEFFFEF82
:10B66000FFEFFFE7DFE7BFDF5FCFFF9D1C5C9B4382
:10B67000BD6C1F8EFE85BF961FA77FAFBFBFDFC704
:10B68000DFC7DFC7DFB7BEAFBEAFBEB7BEB7BEB79F
:10B69000DFBFDFCFDFD7FCBE3ECFFFEFFFE7FFE727
:10B6A000FFE7FFE7FFEFFFE79FDFFF9D1C5C972AA7
:10B6B000D94B9FA63FAF3DAF5DAF7EAF9EB7BEBF3C
:10B6C000BFBFFFC7FFC7DEBFDFBFBEB7DFB7DFAF9C
:10B6D0009FA75FA79F9EDF953F853C43F919BA322C
:10B6E0005FAE7FAE7E6C193BD63AFF9D9FCFDFC722
:10B6F0009FBF5FAF1EAF3EB79FC79FC77FBF3EB71D
:10B700001EA7FEA6FEA6DEA6DEA6FEA63EAF7FAF65
:10B710007FAF7FA73FA7FE9EBE96BE9E9E969E963B
:10B720009E967E967D969E969E9E7D965D9EBEAED4
:10B730003FBF7FC79FC79FC77FBF5FB7FFAEDFA673
:10B74000DFAE7FA6BF8DBA53F61917227D741FC7CF
:10B75000FFDFBBB65DCF1CBF1CBF5DCFBEE7B5AD85
:10B760006842C118264A0963E962A85AC85AA85A09
:10B77000ED83EE8309638B7B4E9C4EACCCA38BA3F5
:10B780008AAB49A3299B6B9B4B8B60282020C1303F
:10B79000E651E972E551C549475A06528339C54118
:10B7A000674AA64AE64A27532753033202112F74E9
:10B7B000BEE7FFEF9DDF9DD79DD7DEE7FEEFDDEF14
:10B7C000BDEFDDEF5BDF5AD73ACF5BCF3AC73BC760
:10B7D0003BC75BCF5BCF5BCF5BCF5BC71BB71CB7F8
:10B7E0001CB7DBAEFCB61BB71BB71BB7BAAEBAAE05
:10B7F000BAB6FABEFBBE3BC73BCF1BC75BCF5BCF26
:10B800003BCFDAB61CB7BBA69C963B867C865B8694
:10B810007C869C9E7ECFFFEFBFCFBCA6FFCFDFC74D
:10B82000BEC7DFC7DFC7DFC7DECFDFD7FFD7FFDF8A
:10B83000FFE7FFEFFFEFFFEFFFEFFFE7FFEFFFE7B0
:10B84000FFEFDFE7BFDF1FC79F95FB5B9B431D54E7
:10B850007F7D9D7DDC85BE9E7FAF3EAF3DA73DAF2A
:10B860007EB79EB79EAFBEAFBEAFDEB7DFB7BEB787
:10B870009EB7BEC75DBF5DCFFFEFFFEFDFE7DFE73E
:10B88000FFE7FFEFFFEFDFEFBFE7BFBE5E6C3C43BC
:10B89000972A5E7DBFC7BFC7DFBFDFBFDFBFDFBF88
:10B8A000DFBFDFC7FFC7FFBFFFBFBEAF9EA79EA71B
:10B8B0007FA7BF9E7D859E741F64592A5722DF95FE
:10B8C000DFDFFE9D594BD73ADF9DDFDFDFCFBFC7FC
:10B8D0007EB71EAF3EAF9FC77FC77FCF5EBF1DB78E
:10B8E0001EAF3EAF1EAF3EB73FB75FB79FB77FAF4C
:10B8F0009FAF7FA73F9FDE96BE969E967E8E9E96BA
:10B900007E969E96BF96BF969F967E963E8E1D967D
:10B910007D9EFFB65FBF9FBF3EB73FAFDD9EBE9E21
:10B920005D963E967F9E1F965F64592295117A53CD
:10B93000DFBE9FD71DC73CC75DCF5CCFB6AD895278
:10B94000A01006420963096309632A6BED83B09C6A
:10B950009094EE83F1A4D0A4ED9B8B9B6AAB69B36A
:10B960008AC329B3C8AAC8A24AA384592020A228FE
:10B97000C2302339434123414341223922394339DB
:10B980006339E541043A4442A44AA54A043AA0086E
:10B99000EA521BD7FFEFBEDF9DD7DEE7FEEFDEEFFB
:10B9A000DDEFBCEFDCEFBCE77BD75BCF7BCF5BCFC2
:10B9B0005BCF7BD77BD77BD77BD79BD75BC75CC75E
:10B9C0001BBF1BBF3BBF3BC71ABF1BBFFABE3BC75A
:10B9D0003BC77BCF7BD79CDF7BD79CDFBCDF9BDF6C
:10B9E000BDDF3BCF3CBFDBA67B8E1A865B867C8EA1
:10B9F0009D96BCA67ED7FFEFDFCFBCA6FFD7FFDFAB
:10BA0000FFD7FFD7FFD7FFD7DECFFFD7DFD7DED7F0
:10BA1000FFDFFFE7FFE7FFE7DFE7FFE7DFE7DFE75E
:10BA2000DFE7BFDFBFBEFE7CBC537C43DC4B1F7532
:10BA30007E7DBD7D1D8E3FAF7FB79FB75EA75EA7A2
:10BA40007EAF9EAF7EA79EA79EA79EA7BEAFDFB785
:10BA50009EB79EBF5DBFDFD7FFEFFFEFFFE7DFDFE2
:10BA6000FFE7FFE7FFEFFFEFBFE7FFC65D6C9D4B12
:10BA7000BA32BB533FC7DFD7BFC7DFBFFFC7FFC760
:10BA8000FFC7FFC7DFBFDFB7BFAFBFA79EA79FAF8F
:10BA90005FB7FF959D6C1F5C9B2AF719DC7CBFDFAD
:10BAA000FFDF5EAE97539F95FFDFDFDFDFCF5EBF27
:10BAB000FDAEDDA6FDAE5FC79FCF7ECF9FCF9EC7F9
:10BAC000BFC7BFCF9FC7BFC7BFBFBFBF9FB7BFB7AE
:10BAD000DFB77FAFFE9E9D96BE9E9E969E96DE969B
:10BAE000DF96BE96BF969F967F963E8E3F963F9678
:10BAF0005E9E7E9EBEA6FEAEDDA6FEA63EA73FA72C
:10BB0000FF9E7D96FD853F8EFF959F6C9B32182290
:10BB1000BA5B1FC75FC73CC77DCF78B60B53801099
:10BB2000A431095BE85A09630963CC7B12A573B59C
:10BB300053AD53B56F9CCC936B9B8BAB8ABBAACB9D
:10BB4000CAD369C3E8B2C8AAC9A2E6718128A220F3
:10BB500060186120C230023923410239234164490F
:10BB60002231833905420442244224424442864A17
:10BB7000E218073258BEFFE77DDFDEE7DEEFDDEFDC
:10BB8000BDEFDDEFDCEFFCEFDCE7BCE79BDF7BD755
:10BB90005BDF7BDF7BD77BD77AD77BD77BCF5BCF56
:10BBA0001BC73BC75BCF5BCF5BCF9BD77BD79BD7FD
:10BBB000BCDFBBDFBBDF9BE7DCEFDCEFBBE7BBE75A
:10BBC000DCE77BD7FBB69AA65A8E5A8E7B8E9C8E6C
:10BBD000DD9E3EB7DFE7FFEFDFCFDCA6FFE7FFDF4D
:10BBE000FFDFFFDFFFDFFFD7FFD7FFD7FFD7FFD78D
:10BBF000FFDFDFDFFFE7FFE7FFE7DFE7BFDFBFDFF5
:10BC00007FD73FA69C6C7B4B5D437D435E5C9F7DF5
:10BC1000DE7D3E869E965FAF3EA73DA75EA77EA7D0
:10BC2000BFB7DFB7BEAF9EA7BEA7BEA79EA7BEAFDA
:10BC3000BEAFBFBF9EC7FFDFFFE7FFE7FFE7DFDF66
:10BC4000DFDFFFE7FFEFDFE79FDFDFBE5D6C9E4BCF
:10BC50009B32B932FFA55FCF3FBF3FB77FBF9FBFCA
:10BC6000BFBFDFBFBFB79FAF7FA77FA79FAF7FB724
:10BC70003F9EDD745F64DB3AD6113C649FDFFFE7D3
:10BC8000DFE71CA6B653FFC6FFE7FFE7FFD77EC777
:10BC9000FDB6DDB61DBF9FCFDFD7DFDFDFD7FFD714
:10BCA000FFD7FFDFFFDFFFD75FB7BD9E9D9EDE9E04
:10BCB000FEA6BD9E9D96DEA6FFA6DE9E1FA71F9F29
:10BCC000FF9EBE96BF967F961F8EDF859F857E7DE9
:10BCD0009F85DF8DDFAEFFAEFFAE1FAF5FAF5EA70C
:10BCE0005FAF1FA73D8E3E8EFF8D5F85DE533922ED
:10BCF000D6199D74BFD77DCF9DD7707CE210E11817
:10BD0000095BC85A6A6B8B6B6B6B6F8C32AD94B5E9
:10BD100053AD0E8C465A424122494359A79ACBCB88
:10BD2000EBDBAAD308C3A7B288A284718130401884
:10BD30004028C238813020286030E23843416449CD
:10BD40006341A449064A264A054A044AC339244A9B
:10BD5000264AE220242174A5DEEFFEEFDDEFDDEFC1
:10BD6000DDEFFDEFFDEFFDEFFCEFFDEFFDEFDCE7BD
:10BD7000BCE7DCEFBCE79BDFBBDF9BDF9BD75BCF88
:10BD80005BC75CCF7CCF7BCFBCDF9BD75BD77BD740
:10BD90007BDF9BDFBBE7DBEFDCEFDCEFBBE7BBE789
:10BDA000DCE75BCF99A69A9EFCAEFDA6DCA6BC9E06
:10BDB000FDAE7EC7FFEFFFEFBFCF9B9EFFDFFFDF34
:10BDC000FFDFFFDFFFDFFFDFFFDFFFDFFFDFDFDFA3
:10BDD000DFDFFFDFFFE7FFE7FFE7DFDFBFDF1FC7D3
:10BDE0005E85FB5B9C4B3C3B3C3B9D435D549F75A0
:10BDF0005F86FF965FA77FAF9FB75EAF9FB7BEB767
:10BE0000DFBFDFBFBEB7DFB7DFAFDFAFBEA7BEA705
:10BE1000BEB7BEBF9EC7FFD7FFDFDFDFDFD7BED70E
:10BE2000FFE7FFE7DFE7DFE71FCF7FB65D647E4B0D
:10BE3000BC329A325D6C9F951F9EBE8D3F961E8EC2
:10BE40009F9E3FB75FB7FFAE1FA7FFA65F9E5F7DB8
:10BE50007E64FE5BBB32D6193A6C7FDFFFEFFFEFEB
:10BE6000FFE75CAE364B7F8D5FCFDFDFFFE7FFDFA5
:10BE7000BFD7BFD7DFDFFFE7FFE7FFE7FFE7FFDF62
:10BE8000FFE7FFE7FFDF1FBF1D9EFE951E961E9674
:10BE90009B7D1C8EDEA61FA71FA73FA73EA71EA740
:10BEA0001EAFFFA67F9E5E7D9D643D54BC4B1A3342
:10BEB000D832193BBA4BBF8DFFBE5FBF7FB77EB78D
:10BEC0007EB75FB79D9E1D8E5F967E857F643C3BEF
:10BED000B811D9329FB6DFE717B6E5314000C95235
:10BEE0008B6BAB73CC73AC738F9494B5D5BD7094DE
:10BEF000684A222163316B7312ADA54940304AABC9
:10BF0000CBD3AADB49D329CBE9B20361202081300E
:10BF10002782A9A2889AA57920380020C130233928
:10BF200023394339C549E549A4410231C028E130EC
:10BF30006449C5518120C320139DFFF7FEF7FEEF32
:10BF4000FEEFDDEFDDE7DDE7DDEFDDEFDDE7DCE791
:10BF5000DDEFDCEFDCE7BCDF9BD79CD79CD79CCF29
:10BF60009DCF9DCF5CC77CC79DCF5BCF7BD7BCDF10
:10BF70009BDFBBE7BBE7DBEFBBE7BBE7DCEFBCE787
:10BF80005BD73BC7FBBE1CB73CB73CB73DB73DB723
:10BF90005DBF9FD7FFF7FFEF7FBF7B8EBEC7DECFB2
:10BFA000FFCFFFD7FFD7FFD7FFDFFFDFFFDFFFE7C1
:10BFB000FFE7FFDFDFDFDFDFFFDF9FD77FAE1C7D27
:10BFC0001C5C9C4B5B43BD4BDE53DD4BDE64BE759E
:10BFD0001D76BE865E9F9FAFBFB7BFB7FFBF9EB740
:10BFE000DFBFDFBFBEB79EAF7EA79EA7BEA7BFAF16
:10BFF000DFB7BFBFDFCFDFD7DFD79ECF9EC7BFCFB3
:10C00000FFDFFFE7FFE79FDFDFBE1FA63E645E4363
:10C010005B225A2AFD637D749D749C6C7C647C64F5
:10C02000DC6C5D7D5D7D5D7DBF855F7D1C5CBC5393
:10C030007C4B782A3722DE7CBFE7FFF7FFF7FFF75C
:10C04000DFE7BFDFFB84354B5C8D9FBE3FCFDFDF7B
:10C05000DFDFDFE7FFE7FFE7FFE7FFE7FFE7FFE7F8
:10C060009FDF5FCF9FB61D9EDE9DFF9DDE959C8D61
:10C070007EA65FBF7FBF3FAF3FA73FA75EAF7FB743
:10C080009FC75FBFBE8D5B5C5D5C7B4BF832BA5374
:10C090003C641C5C5A43D63A9D955FC7BFCF7EBFB8
:10C0A000BFC7BFC75FBF9DA61FB77FA65F857F6461
:10C0B0007C2239221B853ED72C6340006329CC7338
:10C0C0008B6BEC7BCC730D84D09C94B56F8C6331FF
:10C0D0002329C95A4B6394AD3CE72B6B6020A88A97
:10C0E000CBD389DB69DB6AD34BBBC1500028E6693F
:10C0F000EAAAEABA4BCB4BC36892E25000308030D8
:10C10000E238E130E130C128A128A1308130A138E6
:10C11000C140A140E34061288118D294FFFFFFF79E
:10C12000FEF7DEEFFEEFDEEFDDE7DDE7BDE7BCE7C4
:10C13000DCE7DCEFDCE7BCDFBDDF9DD77DCF7DCF6B
:10C140009ECF3DBF3CBF5DBF5DBF5CC77CD79CD76A
:10C150009CDFBCDFDCE7BBDF9BDFDCE7BCE75BD75A
:10C160001AC75CC75CC75CBF5DC75CBF5DBF9ECFC5
:10C170005DCFFFE7FFF7FFDF1EAF5B869EB77DB7A2
:10C180009EBFBEBF9EC7DFCFDFD7FFDFFFE7FFE762
:10C19000DFDFDFD7BFD77FCFBFB63E857D6CFC5BCF
:10C1A000DC53FB535C64DE749E6C3C5CDD64FF7DA1
:10C1B0009F861E8F5F977F9F5E9FBEAF9EAFBEB76D
:10C1C000BFBFBEBFBEB77EAF9EAF3DA77EAF7EB73F
:10C1D0007EBFDFCFFFD7BFD7BECF9EC7BECFDFD7D3
:10C1E000FFDFFFDFDFDF5FCF9FB67F8DDE5BDC32FF
:10C1F0005B22DB32DF7CDE7C7D6C3D64FD5BDD53EE
:10C20000DD53DD53FD531D5CFD53BD537D4BFA3AA9
:10C21000572A584BDEA5FFEFFFF7FFF7FFF7FFF7B1
:10C22000FFEFDFE79FD7F9845653F963FD84FFA53D
:10C23000DFBE3FCF7FD7BFD79FDF5FD7DFC61FAE41
:10C240005D9D1D8D3D959E9DFFA5FE9DBB959DAE63
:10C25000BFD7DFD7BFC73FAF3FA73FAF5EB7BFC7AF
:10C260007FC7BFAEFD749E6CDB53774B7B8DDFBE0B
:10C270001FBF3EA65E8D1643596CBFD7FFDFBFD7E9
:10C28000BFD7BFD7BFD77FC79FCF5FCF9FAEBF748A
:10C29000DE32181A7974579DE418200888528B737F
:10C2A000CC7BEC7B2E846E8C12A50E84C539264A7D
:10C2B000885AC862885253ADB9D6A95AA128298B89
:10C2C0002CD4AAD349D36ACB4BBBE2584038888AD6
:10C2D000EAB22ACB4BD34ACB0AC3E9B2E689A150D2
:10C2E00060388030A130A130C138A1388140A248E7
:10C2F000C2500361E250A140402081189194DEF7C2
:10C30000FFF7FFF7DEEFDEEFDEEFBDE7DEE7BDE7CD
:10C310009DE7BDE7BDE7BDDFBEDFBED77EC71DB76A
:10C320001DB71EB7FDAEFDAEFDAE1CB73DBF3CBF99
:10C330007CCFBDDF9CD7BCDF9CD79CD75BCF5BCFCE
:10C340005CCF7DCF7DC77DC79ECF9ECFBFCFBED7F1
:10C35000BEE7FFF7FFEF9FCFBD9E1B7E9FB77EAF6F
:10C360005EAF7FB77FB7FEB63FBF5FC75FCF5FCF20
:10C370007FCFFFBE7FAE3D7D1B5CBB4B7B4B9B4BA2
:10C380009D6CBF8D7FAE5FA65E85DC6CBB64DD7D82
:10C39000FF965F975F975E977E9FBFA7DFAFFFB760
:10C3A000DFBFDFBF9EB7BFBFBFBF7FB71EAFDDAE72
:10C3B0005EC7BFD7DFD7DFD7DFD7DFD7FFD7FFD73E
:10C3C000DFD7BFCF7FCFDFBE1FA6BF747E4B3B2220
:10C3D0005A2ADD5BDF9D7E8DFE7C7D6CFD5BFE5B06
:10C3E000DE53DE53DE53BD537C4BFA3AD93A594BF8
:10C3F000DD84FFCEFFF7FEF7DEF7DEF7BEEFDEEF00
:10C40000DEEFFFEFFFEFDFE79FBEBB7CF863D76394
:10C41000386CD97C7B959C957C953B8DFB8CDC8422
:10C42000BC84BC84BB841C8DBE9D1EA65FCFFFDF79
:10C43000DFDFBFD75EBFDCA6DD9EFDA67FBF7FC767
:10C44000DFB69C8DBC6CD95BD75BDFBEFFE7BDDF81
:10C450009DD71DC7FD9D396CD542DFBEFFE7FFE7C5
:10C46000FFDFFFDFFFDFBFDFBFDF3FCF7F8DBD53CC
:10C47000BD32D719F76B2F5B2100C118C95A096368
:10C48000AB73CC73B094119DF19C88526B73A85A16
:10C4900026526339264AD5BD58CEC641C1280CACB8
:10C4A000CEE42CE4AAD36ACB8BCB63712040888A7C
:10C4B000A9AA0AC34BCB2ACB2AD3E9CAC9BAA8A2D4
:10C4C000A579E258E248E248C248C250C258E36047
:10C4D00003694469E3608248A2308218C639DAD61B
:10C4E000BACE5DE7FFFFFFF7DEEFBEEFDEE7DEE788
:10C4F000BEE7BEE79DDFBDDFBEDF1DC7DCB6FDB614
:10C500001EBFFDB6FDB61EB75EBF3DBF3DC79ECF89
:10C51000BEDFBDD79DD7BDDF9CD75BCF5CCF9DCFA6
:10C520009DCF9ECFBECFBED7BED7BED7BED7FFE76B
:10C53000FFF7FFF7DFDF3EB77C8EFB751FB71EAF3F
:10C540001FAF1FB77FA6DE957E853E851E7DFE7CD4
:10C55000FE7C3D645A431A3B5B43BC53FB5BDC747B
:10C560009FAEBFCFDFCF9FC73FBF7EA6FD95DC85C7
:10C570007D8E1F9F5F9F5E977E977E9FBFA7DFAFD9
:10C58000DFB7BFB79FB7BFBF7FB75FB7FDB63EC7C7
:10C590009FD7BFD7BFD7BFD7BFD7DFD7DFD7DFCFB3
:10C5A000BFCF7FC79FAE1FA6FF7C9E537D2AFA197F
:10C5B000982A1F9E3FC75DA69C8D1C857C6CFB5BEB
:10C5C000DC5B9B539A4B794BB95B9A74BC9DFFCE55
:10C5D000DFEFFFF7FDF7DCF7DCF7FDF7BDEFBDEFB1
:10C5E000BDEFDEEFFEEFDFEFFFEFDFEF1FCFFBA5CD
:10C5F000D87C576C376417641864186C596C9A743B
:10C60000997CFA8CDCA51EAE1C8D5D95DFBEBFDF6C
:10C61000FFDFBFD73EBFDCA6DCA65FBFBFCF7FC7B3
:10C62000BFB69D953864366C1ECFFFEFFDEFDCEF93
:10C63000DCE7BEE7BDBE7C8DF64299535FCFFFE7D6
:10C64000FFE7FFE7FFE7DFDF1FCF3F8DBD5B1D4348
:10C650001A1A372A567C662940082329E9624A6B50
:10C660008B6BEC7BAF9432A52B6BCD7B6B734652FF
:10C67000E54902296C73B9DEB29CE22042416DBCEF
:10C68000ADDC4CE4EBDBABD30CDCA7A20038E679E5
:10C69000A9AAC9B288B20AC3CCE36ADB09CBC8BA7B
:10C6A00087AA479A0692A581647964716471857935
:10C6B00085794471E360A250A238A2202842FCDEB2
:10C6C000DCD676A596AD9EEFFFFFDEEFDEEFDFEF67
:10C6D000DFE77DD79DDFBEE79EDF5DCF7ED7DFDF63
:10C6E000DFE7DFDFDFE7FFE7FFE7FFE7FFEFFFEF72
:10C6F000DFE7DEE7DEE7DEE79DDF7DD79DD79DD76D
:10C700009ED79ED7BED7DFDFDFDFDFE7FFEFFFF784
:10C71000FFF7FFE79FC7DD9E1B7EFB6D5F9E1F96A9
:10C72000DF8D5E859D6C5D64DC53BC539C4B3B3B55
:10C730001B3B1B3B3D439E4B1F5C5D643E7DDFAE60
:10C74000DFCFDFCFDFCFDFCFDFCFBFCF9FCF5FBF69
:10C75000BD9EDD9EDD961E975F9F5E9F5E9F7EA7BE
:10C760005EA75EAF5EAF3EAFDDAEBDAE1EBF7FCF9C
:10C77000BFDFDFDFDFD7DFD7DFD7DFD7BFCFBFC771
:10C780009FC7FFB6FF951F85BE53BD32BA099709F3
:10C790009C6C7FC77FCF9FD73FC79FAE1FA69E953C
:10C7A0005E8D3D8DBF9D1FAEBFBE7FDFFFEFFEF7ED
:10C7B000FDFFDBF7DBF7DBF7DBF7DCF7BCF79CEF24
:10C7C000DDF7FEF7BDEFFDF7DDEFFEEFFFEFFFEF6B
:10C7D000DFE77FD73FCFDFC69FBE7FBE7FB6DFC616
:10C7E0003FCFBFE7FFEFFFCEFC8CFC841EAE9FD790
:10C7F000FFE7DFD7BFCF9FC79FCFBFD79FD75FCF01
:10C800005FAEDA7C198D7FDFFDF7DBEFFBEFDBEF4F
:10C81000FCEFFDEF9EDF9EBE3D8DF542B65B1DA693
:10C82000BFDFDFDF5FCFBFBEDD7CBB5B7D53592A3F
:10C830003722DD84347C810840084331C85A6A6B52
:10C840008B730D7C8F8C2E848B730D8467524652B4
:10C850006339C54933AD99D6494AA120256AEEDC32
:10C860006CDC0BDCEBDBCBDBCBDBCBD3E581C16062
:10C87000C591E599E5998BD3ABDB8BE3ABE38ADB21
:10C8800009CB87B267AA06A2E599E691A481A581A2
:10C89000A5794471E360A2508230A2206A4A1CDF6D
:10C8A0009FE7BCCED4948E6BB7ADFFFFFFF7BEE71A
:10C8B0005DD79ED7FFE7FFE7DFDFBFDFBFDFBFE763
:10C8C000BFE7BFE7BFDFDFE7FFE7FFEFFFEFFFEF08
:10C8D000FFEFFFEFFFF7FFF7FFEFFFEFFFEFFFE7E0
:10C8E000FFE7FFEFFFE7FFEFFFEFFFEFFFF7FFF7D8
:10C8F000FFEF9FD7FDA63A86FA751B761E5CDD53C7
:10C900009C4B3C3B1C3BFC3ADB32FC323C3B7D43CA
:10C91000BE4BDF53DF53FE53FC53FD74DFAEBFC786
:10C92000BFCFDFCF9EC7DFCFDFD7DFD7FFDFFFDF90
:10C93000DFD79FC7FDA6FDA6DD9EDD9EFD9EFD9E69
:10C940009C967C96BD9EFDAEFDAEDCAE1DBF9FCF1E
:10C95000FFDFDFDFFFD7FFD7FFD7DFCFBFC79FBF27
:10C960003FB7DF8D9F6C7E4B7E2AFC1198099B4B55
:10C97000FFB63FBF5EC7BFD75FC75FC77FCF9FDF31
:10C980009FDF7FDF7FDF9FE7FFF7FEF7DDF7DCF755
:10C99000BBF7DBF7BBF7DBF7DCF7DCF7DCF7BCF763
:10C9A000BCF7FDF7DDF7DDF7BCEFFDF7FEF7DEEFD7
:10C9B000FFF7FFF7FFEFFFEFFFF7FFEFFFEFFFEFEF
:10C9C000FFEFFFF7FFF77FDF5C9DDC84FB847FB622
:10C9D000FFE7FFDFFFDFFFDFFFDFFFDF5FCFDE9D72
:10C9E000F8633A8DBFE7FDF7BBEFDBF7FBF7FCF72A
:10C9F000FCF7FCEFFDEFFFEF3FD71DAE7874554B12
:10CA0000B75BD95BDA5B9A53B832582A1622B63A2A
:10CA10005D959FE7AB52200860102329C85AAB737D
:10CA2000CC734D84AF948B6B0D84E962675AE549F2
:10CA30000231C96278D69194C318A028CAABEDE43C
:10CA40006CDC2BDC0BDCCADBAADBAADBABD309C3B7
:10CA500087B2A8BA6BD3ABDB6ADB69DB8AE38AE314
:10CA60006ADB29CB09C3E8BAC7B287AA0592C58198
:10CA700084792369E360A2488130A2208A523DDF95
:10CA80003FDF7BBEDDCED8AD6A426E631CD7BEE70A
:10CA90005DD7BFDFFFE79ED77EC73DC75DD7DBCE43
:10CAA0001CD7DFE75ECF5DC79ED7BED7BEDFBEDF38
:10CAB000DEDFDEDFDEE7FFE7FFE7FFEFFFF7FFF791
:10CAC000FFF7FFF7FFF7FFF7FFF7FFF7FFEFFFE7CE
:10CAD0009ECF3DBF9B9E5A8E5B8E3B86FC32FC32C6
:10CAE0001D3B1D3B3E437F439F4BBF4BDF53DF53FB
:10CAF000DE531E5C1D5C3C5CBC6C3E9E1EB79EC73C
:10CB00009FC7BFCF7EC75DC77EC7FFDFFFE7FFE7D9
:10CB1000FFE7FFDFBFCF9FC75FBF1EAF3EAF3EAF98
:10CB20003FB71EB7DDAE3EB75FC77FC79FCFFFDF02
:10CB3000FFE7DFDFBFD7BFCF9FC77FBF5FB7BF9E16
:10CB40005F7DDC4BFC321C1A9A0998097B43DFAEEF
:10CB50007FC71DB73DBF3DBF1DBF7EC77ECF9EDFD8
:10CB6000DFE7FFEFDEEFDDEFBDEFDCF7DCF7DBF754
:10CB7000BBF7BBF7DCF7FCF7DBF7DCF7FCFFDCFF10
:10CB8000DCF7DCF7FDF7FDF7FEFFFDF7BDF7FDF77E
:10CB9000FEFFFEF7FEF7FDF7FEF7FEF7FEF7FEF7E6
:10CBA000FFF7FFF7FFF7BFEF1DB6FB8CDB84DA84DE
:10CBB0007EB6DFDFFFE7FFE7BFDF3DAEFB84D75B7D
:10CBC000176C3CB6FEF7FBF7FBF7FBF7FBF7FCF740
:10CBD000DBF7FCF7FCEFDDEFFEEFDFE75FD75FB6DB
:10CBE0003D8D5B6CFA5BDA5BDB5B1C6C5F8D1FCF92
:10CBF000FFF7FBD66529200881180229A85AAB73D4
:10CC0000CC734E844E84AB73AC7B875A4652423110
:10CC100063390E8CB5B5A639A118E459EDD4EDEC05
:10CC2000EDEC8CE40BDCEADBCADBA9DBAADBEBE393
:10CC3000CBE3ABDBABE38ADB69E349DB49DB49DB15
:10CC400049DB29D329CB08C349CB08BB469AE589E0
:10CC50004371C260C258C2488130A3208B52FDD6B6
:10CC6000BDC61BB67CBE5FDFBCCECC526621F38C4A
:10CC7000FFE7FFE77ED77DCF7EC75DCFD7B513A592
:10CC80003084B6AD9FD75EC77ECF9ED79DD79DD748
:10CC90009DD79DD75CCF5CCF5CD75CD79EDFBEE7CE
:10CCA000BEE7DFE7FFEFDFE7BEDF9EDF7DCF5DC7DB
:10CCB0003DB7FCAEDB9EDC9EDC9E7B8EBF4BBF4B4C
:10CCC000BF4BBE4BBE4BDE53DE53FE5B1E5C3E6471
:10CCD0005D649D6CBC6C3C859FAE9FCF3DBF5DBFCE
:10CCE0007EC77EC7DFCFBFCFFCB61DC77ED7FFEFA5
:10CCF000FFEFFFEFFFE7FFE7FFDFFFDFFFDFFFD71C
:10CD0000DFDFFFDFDFDFFFDFFFDFFFE7FFE7FFE75B
:10CD1000FFE7FFE7FFD79FCF1FB77F9EFF859F5C91
:10CD20003D3B5C22DC119B09D811DC53DFB65FC7A9
:10CD30003EBF5DC71DBF5EC73DBFFCB6FCBE7DD715
:10CD40009EDFDEE7BEE7BDE79DE79CEFBCEFBBF7EC
:10CD5000DBF7DCF7FCFFDCF7FCFFDBF7DCF7DCF7ED
:10CD6000DCF7BCF7BCF7FDF7FDF7FDF7FEFFFEFFB4
:10CD7000DEFFFEFFFEFFFDF7FEF7FEF7FEF7FDF715
:10CD8000FDF7FDF7FEF7FFF7FED6BCA53C95DB846B
:10CD9000BB84FC843D8D7E95BC7CD863F96358745C
:10CDA0001BB6DFEFFCF7FBF7DBEFFBF7FBF7FBF75F
:10CDB000DBF7FCF7DBEFDCEFFEF7FFF7DFE7DFE7A2
:10CDC000FFEF9FDF7FD79FDF7FDF9FE7FFEFFFF75B
:10CDD000FFF717BEA21060088118022946526A6B3D
:10CDE000EC7B6E846E842D844A6BC862C441E1285A
:10CDF0000A6BB5BDA952601080280BAC4EE52DED35
:10CE000090F5CDE488C34BDC4BE42AE40ADCEADB92
:10CE1000EADBAADBCBE3AAE3AAE389E369E36AE3FB
:10CE200069DB49DB49D349D38AD308BB459AE489F6
:10CE3000E260A1508148A24061286118CC5ADCD63A
:10CE40005CBE799DDBA57DBE5FDF3ED7AF6B820008
:10CE50002C53DBC6DFE79ED79ED79AC657D616E679
:10CE6000AC9B89621CCF9EC75DC79DD77CCF9CD7EA
:10CE7000BDDF9CDF7CD77CD73BCFFAC63BC71BC747
:10CE80001BBF3CBF1CBF5DC73CC75CC7FBB61CB724
:10CE9000FCAEDBA6DBA61CAFFCA65A8EDD53DD5331
:10CEA000FD531D5C3D5C5D647D6CDE741E7D5E85A6
:10CEB0005E859E8D1E9E1FBFBFD7BFD79ECFBECFA4
:10CEC000BFCF7EC77EC7BFCFDFD77ECF9BB63AAE80
:10CED000DCC6DFE7FFEFFFEFFFEFFFE7FFE7FFE76E
:10CEE000FFE7FFEFFFEFFFEFFFEFFFE7FFE7FFE7F2
:10CEF000DFDF5FCF1FBF5FA63E753D547C3B7A22CC
:10CF0000FB119A0979093A225D64BFB63FC75CC735
:10CF10003CC75DC71CBF5EC75DC73CC75CCF9DD724
:10CF20009DDF9DDFDDE7BDE79DE79CE7BCEFBBEF45
:10CF3000BCF7DCF7DBF7DBF7FBFFDBF7BCF7DCF775
:10CF4000FDFFFDFFFDFFFDFFFDF7FEFFFEFFFEFF06
:10CF5000FEFFFEFFFEFFFEFFFEF7FEF7FDF7FDF70B
:10CF6000DDF7DDF7DDF7FEF7BEEF9CC61CB69CA52E
:10CF70001C8D3974B863B85BD9639B841B957DBEE7
:10CF8000BEEFFDF7DBEFDBEFFBF7FBF7FBF7FBF7A4
:10CF9000FBF7FCF7FCF7DCEFDCEFFDF7DDEFDDEF97
:10CFA000FFF7FFEFDFEFFFF7FFF7FFF7FFF7FFFFF9
:10CFB000FFFF75AD81086110A220E228264A6A6B46
:10CFC0000D7C6E846E840C7C086367524231E649A6
:10CFD0002F8CEA5AA1184018C77A90E56EEDAFF58C
:10CFE000B1F548A3A8BBCCE4CCEC8BE48BE44BE4D8
:10CFF0004BE42BE4EAE3CAE389E389E369E389E3E9
:10D000006AE369E369DB69DBAADB69CBA6AA058A67
:10D010000261A1508148C240812841106E6B7BC6DD
:10D020001BB6967C967CB784B9A55BBEBCCE11744A
:10D0300082006519D6A5FFEF7DDF57CE3AFF14F6C3
:10D04000EDB3066259BE1CBF3DC77DCF7CD7BCDFA8
:10D050009CD79CD7BCD77CCF5BCF5BC73BC71AB7ED
:10D06000FAAE9A9E9A9EDBA61BAF5CB73BAFFBA6BF
:10D07000DBA6DBA6DB9EDB9E9A967A8E5E855E85BE
:10D080005E857E859E8DBE95DE95FE9D3EA69FAEFD
:10D09000DFB63FC7BFD7BFD7BFD7BED7DFD79ECF7B
:10D0A0009ECF7EC77EC7BFCFBFCFBFCFDFCF3DBF35
:10D0B0001AA6588D99959EBE7FDFFFEFFFEFFFEF19
:10D0C000FFF7FFF7FFEFFFEFDFE7DFDFBFDF9FD700
:10D0D000FFBEDF95BF6CDE53BC2ADA11BA095801D6
:10D0E00078093822BB4B7E8DFFBE7FCF3CBF9DCFE2
:10D0F0005DC75DC75DC79ECF9DD7BDDF9CDF9CDF51
:10D10000BDDFDDE7BDE7DDE7DEE7BDE7BCE7FCF758
:10D11000DCF7DBF7FBFFFBFFDBF7DBF7FCFFFCF7E4
:10D12000FDFFFDFFFDFFFDFFFDF7FEFFFEFFFEFF24
:10D13000DEF7DEFFFEFFFEFFFEF7FEFFFEFFFDF760
:10D14000FDF7FDFFFDFFFDF7FDF7DEEF5DDFFCD630
:10D15000BCCE3BB6BAA57A9D9AA5FAB51CD7FEF708
:10D16000DCF7FCF7BBEF9AEFDBF7FBFFDBF7DAF757
:10D17000FBF7FBF7FCF7DCEFDCEFDDEFFDF7FDF78E
:10D18000DEEFDEF7FFF7FFF7FFF7FFFFFFFFFFFF21
:10D19000FFFF34A5C2188110C220E228264AAB73D3
:10D1A0000C7C4E840C7CAB73C8628339064A0B63DB
:10D1B000C63961104018C45170DDAFE511F693FE19
:10D1C0000BACE2714AC42EED4EED2EEDCDE4ACE495
:10D1D000ABEC6AE40AE4CAE369E369E389E38AE35E
:10D1E00069E389E369E348DB69DB69D307BB259A17
:10D1F0004369C250A148A24061206210B07378A573
:10D200001CAE977C566CD463146CD784BAA5DDCE63
:10D2100097A5C729C30854A55BEFD8EE18FF91ED79
:10D22000ACB3A559D6AD3CC73CBF3CBF5CC77CC7BF
:10D230007CCF9CCF7BCF7BCF7BC77BCF9CCF7BC76B
:10D24000DAA69996BA96998E9A96BA96DA96999699
:10D25000DA96FB9EDB9E798E9A8E5986BFB6BFB654
:10D260005EA65EA6BFB6DFBEDFB61FBF3FC75FC705
:10D270007FCFBFCFBFD7DFD79ED7BED7DFD77DC782
:10D28000FCBE5DC77ECF7EC73EB73EB77EBFBFC781
:10D29000BFD75FC73CAE7995188D5895B9A53BB6F9
:10D2A0007CBEFFCE3FD7FEC67DB63DAEBC9D1B8586
:10D2B000D953183B5722D711D811F9197B2A9E4B05
:10D2C000BF74DF959FAE1FC77FCF7DCF3CC77DCF9B
:10D2D0003CBF1CBF3CC77CCF7CD7BCE7BCE7BCDFF6
:10D2E000DDE7DDE7DDE7DDE7BDE7BDE7BCEFDCF768
:10D2F000DCF7FCFFFBF7FBF7FBFFFCF7FCFFFCF7A1
:10D30000FCFFFDFFFDFFFDFFFEFFFEFFFEFFFEFF3A
:10D31000FEFFFEFFFEFFFDFFFEF7FDF7FEFFFDF740
:10D32000FDFF18D713B694BE99E7FCF7FDF7FDF79C
:10D33000DEF7DEEFBEEFBFEFBEEFBDF7FCF7FCF7A9
:10D34000FBF7FCF7DBEFBBEFDBF7FBF7DAF7FBF7FD
:10D35000FBF7FBF7FCF7DBEFDCEFDCEFDCF7FDF7CF
:10D36000FDF7FDF7FEFFFEF7DEF7FEFFFFFFFFFF15
:10D37000FFFFD6BD0321C2184531A539A4394A6B38
:10D38000CC7BEC7BCC7B4A6BA441C541685203212A
:10D390006118401863498EBC12EE31EED5FED2E51D
:10D3A000C26989A3EDDC6FED4FED8CD48BDCECEC26
:10D3B000CBEC6AEC2AE4CAE389E369E389E369E335
:10D3C00069E369E369E328DB28D328D3E7BA66A2D7
:10D3D0006371C150A148C24041206210117C78A500
:10D3E000FBAD977C366C935B735BF46BB7843CB698
:10D3F0009FE7DCCE2D5B8108909C59FF33FEEFDC6C
:10D400000993434137BE9DD7FBB6DAB6D9AEFAB61B
:10D410001AB71ABF5BC75BC73BBF5BBF5BBF1AB71F
:10D42000FAA6FAA6FA9EBA8EBA96BA8E998E998EF6
:10D43000788EFA96B98E78869986587E7FCF9FD758
:10D440005FC77FCFBFD79FD77FCFBFD77FCF7ECFDD
:10D450007EC79ECF9ECFDFD7BFD7BFD79ED77DC712
:10D460007DC77ECF7ECF3EBF3EB7FDAE1DAF7FBF37
:10D470007FCF9FCFDFD7DFD77FCFDDB6D99D388570
:10D4800076747774776CF55B9553554B1543D532AD
:10D49000D632D6325843FB53BC6C9F853F96BFA60D
:10D4A000DFAEDFB61EBF3DC73DC73CC71CC7FCBED5
:10D4B0001CBF3DC73CC77CD7BCE7DCE7BCE7DDE76A
:10D4C000DCE7BCE7BCE7DCE7DCE7DCEFDCEFDCEF6C
:10D4D000DCF7FCFFFCFFFCFFFBF7FBF7FBF7FBF7C0
:10D4E000FCFFFCFFFCFFFCFFFDFFFEFFFEFFFEFF5D
:10D4F000FEFFFEFFFEFFFEFFFEFFFEFFFEFFFDFF45
:10D5000038D7E9634A8D8B8D6D95B9E7FCF7DCEF71
:10D51000BCEFBCEFDCF7DDF7FCF7FCF7FCF7DBF763
:10D52000DBEFFCF7FCF7FCF7DBF7DAF7DAF7FBF7F2
:10D53000FBFFFBF7FBF7FBF7FBF7DBF7FCF7DCF791
:10D54000FCF7DCF7FCF7FDFFFDFFFEFFFEFFFEFF33
:10D55000FFFFDAD68531C218A639AE7BC541885A9D
:10D56000AC7B6B73C962A4396439A539A218201049
:10D5700020180241CAABD1ED93F616FFD6FE699B87
:10D58000868A2CC42FED4FED2BC488AB0CEDEBEC51
:10D59000AAEC69EC4AECC9E389DB69E369E369E376
:10D5A00069E349E369E348DB08D308CBC6B2459A8F
:10D5B000A471C150A148E24861200421F17BB9ADBA
:10D5C00039957774B45BB03AD142114BF56B5995EC
:10D5D0003CB65FDF7FE7928C44292E9C50ED4DD402
:10D5E0002672C6491AD79DD79CCF7CC73ABF5BBF6E
:10D5F0005BBF3BBF1AB7FAB6FAAE1BAF1AAFD9A6DC
:10D600001BAF1BA7B996B996FA9EDA96B98E988E7B
:10D61000988E988E7886988E988E9886BED77DC77D
:10D620007DC7BECFBECF9ECF5DC7BFCF9ECF5EC7EB
:10D630003DBF7EC77EC75DC77EC79ECF9ECFBFCF93
:10D64000BFD79ECF9FCF5EBF3EB7FDAEFDAE5FBFE3
:10D650007EC79FCF7ECFBFD7BFD7DFD7FFD7BFD77C
:10D66000BFCF3FC7FFBEDFB69FAE5FA61F9EDF8D59
:10D670005F9E5F9E3F9EBFAE3FBF3FBF5FBF3EBF4F
:10D680005EC77ECFBFDFDFDFDFE7DFDFDFDFBED7F5
:10D690007ED75DCF9DD7BDE7DCE7DCEFDCE7DCE7DD
:10D6A000FDE7BCDFBCE7DCE7FCEFDCEFDCEFFCF721
:10D6B000FCF7FCF7FCF7FCFFFBF7FBF7FBF7FBF7CE
:10D6C000FCFFFCFFDBF7FCFFFDFFFDFFFDFFFDFFA7
:10D6D000FBF779E779DF39D7B7C6D8CEFDF7FDF785
:10D6E00095BEC75B2C96A9858B8D14C7FBF7DCF71D
:10D6F000DCF7DBF7BBEFDBF7DBF7DBF7DCF7BBEFE8
:10D70000DBEFDCEFFCF7FCF7DBF7DBF7FBF7FBF716
:10D71000FBFFFBF7DAF7FBF7FBF7DBF7BBEFDBF71A
:10D72000DBF7DBF7DBF7FCFFFCFFFDFFFDFFFDFF99
:10D73000FDFFBCF7A9526108A210CE7B509447525E
:10D74000885A4752E2208118E320611040102018C7
:10D7500064516AA34EE551FED4FEB4F68DBC089325
:10D7600049ABEBC3CEDCCABB448A4BCC0CEDAAEC74
:10D7700089EC69EC2AECEAE3CAE389E349E349E38B
:10D7800069E369E369E369E328DB28D3C7BA259A2B
:10D790008371C150E250034961186631117C3BBE70
:10D7A000B7843674935B8F3A2E2A6F327353977C0B
:10D7B0009684789D9DC67FE7B7AD28526BA38BAB4F
:10D7C000E13823310A630A5BF18CD9BE7BCF1ABFE3
:10D7D0005BBF1AB73BB7B9A6DA9EDA9EFAA65BAF73
:10D7E0005BB719AFD99EB896D89EF99E19A7F89E37
:10D7F000D896D796D796F796D796B68E7DBF3CBF6C
:10D800007DC75DBF1CB73DB73DB75DBF5DB73DB7D9
:10D810003DBF7EC75DBF1CB73DBF3DBF9EC79ECF0E
:10D82000BFCFBFCFBFCF5EBF5EBF3DB71DAFFDAEA9
:10D830001DB77EC79FCF9FD79FCF7EC79FCF7FCF7C
:10D840007FC77FC79FCF9FCF7FC77FBF3FB7FFAE49
:10D850001FAF1FB71FB75FBF9FC79FCFBFDFFFEFD0
:10D86000FFEFFFF7FFF7FFEFFFF7FFF7FFF7FFF718
:10D87000FFF7FFEFFFEFFEEFDDEFBDEFBCE7BCE72B
:10D88000DCE7BCE7DCEFDBEFDCEFDBEFDCEFFDF749
:10D89000FCF7FCF7FCF7FBF7FBF7FBF7FBF7FBFFED
:10D8A000DBF7DBF7DCF7FDFFFDFFFDFFFCF7D5C67F
:10D8B00071AE70AE8E8DAB748F95CD7C929DFCF762
:10D8C00099E70D85A764CA850B96D1B6FAF7FBF7E1
:10D8D000DBEFDBEFDCF7DCF7BCEFDCF7FCF7DCF7CA
:10D8E000FCF7FCF7DCEFDCF7FCF7FBF7DBF7FBF70B
:10D8F000DBF7DAF7DAF7FAF7FBF7FAF7DBF7FBF71C
:10D90000FBF7FBF7DBF7DBF7DCF7DCF7DCF7FCFF1B
:10D91000DCF7FDFF73ADA110821024210F8CCA62C9
:10D9200003298118401061104110201061282772CE
:10D930008CB330ED31FE70FE71F6CFED2ABC48ABF2
:10D9400028AB8AB3658A205947AB0CEDCAECA9EC29
:10D9500089EC69EC09E4E9E3CAE3AAE369E349E392
:10D9600069E369E349DB49DB29DB29D328CB87AAB3
:10D970008379E1580251E2406118042152841BB6B8
:10D98000567CD463314B4E2A8B192E2AD142D46354
:10D99000F463146CD68499A5DDCE7ACE8E7BC6490D
:10D9A00000100139867A08838018263A77AE1ABFAC
:10D9B0003ABF5CBF3BB7B99E588E9896F8A639AF70
:10D9C00018AF17A717A717A717AF17AF37AF36AFFF
:10D9D00036AF36AF36AF36AF56AF56AF1CAFFBAE35
:10D9E0001CB73DB71CAFFCA6DBA61CAF1CAFDBA66B
:10D9F0003DBFBFCF5EBF1CB71DB79EC79FC75DBFF2
:10DA00003DBF3DBF5EBF5EBFDFCFBFCF5EBF5EB776
:10DA10009FC75EC75ECF7ECF5EC73EBF5EC75EC795
:10DA20005EBF3DBF5DBF5DBF1DB71DAFFDAE1DAF8E
:10DA30001DAFFDAE7EBFBECFDFD7FFE7FFEFFFF725
:10DA4000FFF7FFEFFFEFDEE7DEE7DEE7DEE7DEE72B
:10DA5000DFEFFFEFFFEFFFF7FFF7FEF7DDEFBCE7CC
:10DA60009CE7DCEFBCEFDCEFDCEFBBE7BCEFDCEF0F
:10DA7000FCF7FCF7FCF7FCFFFBF7FBF7FCFFFBF701
:10DA8000DBF7DBF7FBF7FCFF38D717CF52AE8D8DF6
:10DA90008FA6AB852B7D309E15C7B0958D7CFBEF97
:10DAA000FBF7F3BEEC8D0FAF6C9ECA8D54CFB8E779
:10DAB000FBF7DCF7DCEFBCEFBCEFDCEFDCEFDCEF1F
:10DAC000DDF7FCF7DCEFFCEFDCF7FCF7FBF7DBF74F
:10DAD000DBF7DBF7FBF7FAF7DAF7FAF7DAF7FAF73B
