:020000040800F2
:1080000088200020458100089B810008938100089A
:10801000978100088D81000835820008000000006B
:10802000000000000000000000000000C781000800
:108030009181000800000000C5810008C981000886
:108040005F8100085F8100085F8100085F81000890
:108050005F8100085F8100085F8100085F81000880
:108060005F8100085F8100085F8100085F81000870
:108070005F8100085F8100085F8100085F81000860
:108080005F8100085F8100085F8100085F81000850
:108090005F8100085F8100085F8100085F81000840
:1080A0005F8100085F8100085F8100085F81000830
:1080B0005F8100085F8100085F8100085F81000820
:1080C0005F8100085F8100085F8100085F81000810
:1080D0005F8100085F8100085F8100085F81000800
:1080E0005F8100085F8100085F8100085F810008F0
:1080F0005F8100085F8100085F8100085F810008E0
:108100005F8100085F8100085F8100085F810008CF
:108110005F8100085F8100085F8100085F810008BF
:108120005F8100085F8100085F8100085F810008AF
:10813000DFF80CD000F018F80048004789830008E9
:10814000882000200648804706480047FEE7FEE7F3
:10815000FEE7FEE7FEE7FEE7FEE7FEE7FEE7FEE7F7
:10816000D181000831810008064C074D06E0E06827
:1081700040F0010394E8070098471034AC42F6D36E
:10818000FFF7DAFF4C8500086C85000800BFFEE7AA
:10819000704700BFFEE700BFFEE7704710B500283C
:1081A00007DA0A07140E054A00F00F031B1FD45408
:1081B00003E00A07130E024A135410BD18ED00E045
:1081C00000E400E07047704710B500F04FF810BDB4
:1081D00010B51448006840F00100124908600846D4
:1081E0004068114908400F494860084600680F4937
:1081F00008400C4908600846006820F480200860A8
:10820000084640680A490840064948600846006830
:1082100006490840034908604FF41F00886000F0D9
:1082200069F910BD001002400C00FFE8FFFFF6FEE8
:10823000FFFF00F700BFFEE702E008C8121F08C1F9
:10824000002AFAD170477047002001E001C1121FD7
:10825000002AFBD1704700000349086000BF0249B3
:1082600009680029FBD1704700000020044800681D
:1082700020B103480068401E0149086070470000B3
:108280000000002010B504460B4931F8140000F03E
:10829000C1F80A4951F82430094951F82400032251
:1082A000102100F027F8054850F82400044951F83F
:1082B0002410486110BD0000480000201800002074
:1082C00008000020034951F82010034A52F82020EA
:1082D000516170471800002008000020034951F840
:1082E0002010034A52F82020116170471800002026
:1082F00008000020F0B5044616460025002201F0D3
:108300000F0511F0100F00D03543002018E00127B1
:1083100087401F4212D022684FEA800C0F2707FACD
:108320000CF7BA43870005FA07F73A43282901D129
:10833000636102E0482900D123612260471CB8B282
:108340000828E4D308201CE0012787401F4216D0EC
:108350006268A0F108074FEA870C0F2707FA0CF7AD
:10836000BA43A0F10807BF0005FA07F73A432829E6
:1083700001D1636102E0482900D123616260471C9A
:10838000B8B21028E0D3F0BD4FF40041080300F06C
:1083900037F80020FFF776FF0120FFF773FF022078
:1083A000FFF770FF0320FFF76DFF00F0A7F826E04E
:1083B0000020FFF793FFC820FFF74EFF0120FFF7D3
:1083C0008DFFC820FFF748FF0220FFF787FFC82076
:1083D000FFF742FF0320FFF781FFC820FFF73CFFB4
:1083E0000020FFF76FFF0120FFF76CFF0220FFF76F
:1083F00069FF0320FFF766FFC820FFF72DFFD7E7CF
:10840000024A0A400243024B1A60704780FFFF1F76
:1084100008ED00E0064901EB9011096800F01F0328
:1084200001229A401143024A02EB901211607047F8
:1084300000100240002000212B4A126842F48032D2
:10844000294B1A6000BF401C274A126802F4003111
:1084500019B9A0F57F42FF3AF5D1234A126812F408
:10846000003F01D100BFFEE71F4A52681E4B5A6011
:108470001A4652685A601A46526842F480625A603C
:108480001A46526822F440325A601A46526842F440
:1084900040325A601A465268144B1A40124B5A60C6
:1084A0001A465268124B1A430F4B5A601A4612680A
:1084B00042F080721A6000BF0B4A126812F0007F0F
:1084C000FAD0094A526822F00302074B5A601A4652
:1084D000526842F002025A6000BF034A526812F02A
:1084E000080FFAD07047000000100240FFFFC3F7EA
:1084F0000000280810B5FFF79DFF10BD10B5124809
:1085000000684FF47A71B0FBF1F4601EB0F1807F27
:1085100001D301200FE0601E4FF0E02148610F21E0
:108520004FF0FF30FFF73AFE00204FF0E021886166
:1085300007200861002008B100BFFEE70021481EA7
:10854000FFF72CFE10BD0000040000206C85000821
:10855000000000208800000038820008F485000830
:108560008800002000200000488200080000000071
:1085700000F36F0600100140001001400018014098
:10858000001801400100000004000000010000008C
:10859000020000000E0611070002000004000000A7
:1085A000000400000800000000080140000801402D
:1085B0000206020604060406060606060008014036
:1085C00000100140000C01400100000000200000EC
:1085D000004000000206040603060000010000003F
:1085E0000020000000400000000201000D0E0628DF
:0485F000280000005F
:04000005080081313D
:00000001FF
